S00D000068656C6C6F2E7372656303
S31500000000975100009381012E970200009382820D82
S3150000001073905230732440F163100402970200007B
S315000000209382420D73905230EF00803897020000A1
S3150000003093824223E78002001313240097020000F4
S3150000004093824204B302530003A302000F00F00F91
S31500000050E31C03FE138E41D493133400B30E7E00CB
S31500000060138F4E0083AF0E0003210F00970200008E
S315000000709382420873905230732540F1E7800F0057
S31500000080730010007300100073001000730010005E
S31500000090730010007300100073001000730010004E
S315000000A0730010007300100073001000730010003E
S315000000B0730010007300100073001000730010002E
S315000000C013132500970300009383C3FBB302730049
S315000000D00F00500F23A002001305000067800000E8
S315000000E0730010001300000013000000130000004E
S315000000F073202034130181F72320110023243100BB
S315000001002326410023285100232A6100232C710055
S31500000110232E8100232091022322A1022324B1024F
S315000001202326C1022328D102232AE102232CF1022D
S31500000130232E010323201105232221052324310523
S315000001402326410523285105232A6105232C710501
S31500000150232E8105232091072322A1072324B107FB
S315000001602326C1072328D107232AE107232CF107D9
S3150000017073250030F325103473262034232EA10670
S315000001802320B1082322C10863560600EF00C02BC6
S315000001906F00C00093060100EF00802A8320010053
S315000001A0832181000322C10083220101032341012F
S315000001B0832381010324C101832401020325410213
S315000001C0832581020326C1028326010303274103F7
S315000001D0832781030328C1038328010403294104DB
S315000001E083298104032AC104832A0105032B4105BF
S315000001F0832B8105032CC105832C0106032D4106A3
S31500000200832D8106032EC106832E0107032FC10706
S31500000210832F010873100F3073901F34032F41078B
S31500000220832F8107130181087300203037550000A2
S31500000230130101FF130545A523261100EF00907C4D
S3150000024037550000130545A6EF00D07B8320C1007B
S315000002501305000013010101678000000000000083
S31500000260EF0000151304010093020000639C0200D6
S31500000270138501C9138681EFB306A64093D53600D0
S31500000280EF000014938201D223A08200EF00001633
S31500000290EF000012EF004037EF00403CEF008025F2
S315000002A017150000130545D4EF00904FEF00505985
S315000002B0EF000010938241C903A50200938201C793
S315000002C083A5020013060000EFF05FF6EF00904EE4
S315000002D0730010000000000000000000938781C634
S315000002E0138781C6630AF700930700006386070039
S315000002F0138581C66780070067800000938781C6E3
S31500000300938581C6B385F54093D7254093D5F501EE
S31500000310B385F50093D51540638A05009307000061
S3150000032063860700138581C6678007006780000023
S31500000330130101FF2324810083C781D223261100E4
S3150000034063920702EFF09FF99307000063880700A6
S31500000350138541C897000000E700000093071000CE
S315000003602384F1D28320C1000324810013010101FB
S31500000370678000009307000063840702130101FFF2
S315000003809385C1D2138541C823261100970000002A
S31500000390E70000008320C100130101016FF01FF682
S315000003A06FF0DFF503A501CA6780000000000000BA
S315000003B06780000000000000000000000000000050
S315000003C09387F5FF638205021307F0FF130600000B
S315000003D0930600002320C5002322D5009387F7FF4C
S315000003E013058500E394E7FE67800000B757000019
S315000003F037570000138607AE930507AE6300B604B1
S31500000400B7560000938606AE63FAD5029386F6FFCA
S31500000410B386B64093F6C6FF938646003306D600EB
S31500000420130707AE938707AE83A607009387470097
S3150000043013074700232ED7FEE398C7FE6780000008
S3150000044073001000678000009317160093D71700FB
S315000004501307B0006386E700730010006780000092
S31500000460130101FE2328210103A9C1C9B7072000F2
S31500000470232A91003309F9008324490023263101F8
S31500000480232E1100232C8100938941DC638C040206
S3150000049093972400B387F90003A40700630E0400B2
S315000004A0832784000325C40093850400E7800700A2
S315000004B003240400E31604FE232299008324490042
S315000004C0E39804FC8320C1010324810183244101B4
S315000004D0032901018329C10013010102678000007D
S315000004E083A701CA130500009387170023A0F1CA4A
S315000004F067800000130101FB2324810483A701CA3E
S3150000050023261104232291046386070C83A7C1C9FD
S315000005106396070203A541C7B717000013088100B9
S31500000520938707E413074000930620001306200C68
S3150000053093051000EF00900F23AEA1C883A781C9D1
S315000005406396070203A541C7B71700001308810089
S31500000550938707E413074000930620001306300C28
S3150000056093051000EF00900C23ACA1C803A741CA65
S3150000057083A6C1C993071000131727001307072086
S315000005801317C7003387E6002320070093051000E2
S3150000059013060002139727003387E6002320B700CF
S315000005A093871700E398C7FEB71700009387078065
S315000005B073A047309307800073A007308320C104DF
S315000005C0032481048324410413050000130101055B
S315000005D06780000003A541C79307004E130800007B
S315000005E013074000930610001306D00B9305100066
S315000005F0EF00D00383A701CAE39A07F09307100020
S3150000060023A0F1CA6FF09FF0130101FF232481009C
S3150000061083A781CA232611001305000063980702E9
S3150000062003A541C7B717000013080000938707E426
S3150000063013074000930640001306C0009305100000
S31500000640EF00C07E23A4A1CA133515008320C10084
S31500000650032481001301010167800000130101FEDC
S31500000660232C810083A701CB232E11001305000044
S31500000670638A07008320C10103248101130101025B
S315000006806780000003A541C7B7170000938707E4FA
S3150000069013080100130740009306400013061001DB
S315000006A093051000EF0080789307050023A8A1CAE0
S315000006B013051000E38007FC034711008320C101E6
S315000006C00324810123A6E1CA1305000013010102D8
S315000006D067800000638A051C630C062603A70500D5
S315000006E0232AB6029357570093F607061377F701A6
S315000006F093F7F70133E7E6002300F600A300E600D0
S3150000070083A705016382071293960701B3F6F600E5
S31500000710B708F0FF13F8F70013073000B3F6160119
S315000007206306E82013D7470013174701B337E000E5
S31500000730B307F0401347F7FF3377F70023060601A8
S3150000074083A745012322D6002324E600638E070EE5
S3150000075093960701B3F6F600B708F0FF13F8F70013
S3150000076013073000B3F616016300E81A13D74700E3
S3150000077013174701B337E000B307F0401347F7FFFD
S315000007803377F70083A785012328D600232AE600BE
S31500000790230C0601638A070C93960701B3F6F6004D
S315000007A0B708F0FF13F8F70013073000B3F6160189
S315000007B0630AE81213D7470013174701B337E0005F
S315000007C0B307F0401347F7FF3377F70083A7C50158
S315000007D0232ED6002320E602230206036386070A99
S315000007E0139707013377F7003708F0FF93F6F70002
S315000007F09305300033770701638CB60A93D7470019
S3150000080093974701B335F000B305B04093C7F7FFA0
S31500000810B3F7B7002324E6022326F6022308D602FE
S315000008201305000067800000130800002306060178
S3150000083083A7450113070000930600002322D60074
S315000008402324E600E39607F083A78501130700003B
S3150000085093060000130800002328D600232AE6008A
S31500000860230C0601E39A07F283A7C50113070000CC
S315000008709306000013080000232ED6002320E6026C
S3150000088023020603E39E07F4930700001307000004
S31500000890930600002324E6022326F6022308D60246
S315000008A01305000067800000130510006780000034
S315000008B093C7F7FFB7051000938505F09397470098
S315000008C0B3F7B7001357C7003367E50093E7F70F91
S315000008D02324E6022326F6022308D6021305000087
S315000008E06780000013C7F7FFB7071000131747000C
S315000008F0938707F093D6C6003377F700B366D50023
S315000009001367F70F6FF09FEC13C7F7FFB7071000D9
S3150000091013174700938707F093D6C6003377F7007F
S31500000920B366D5001367F70F6FF0DFE513C7F7FF60
S31500000930B707100013174700938707F093D6C60032
S315000009403377F700B366D5001367F70F6FF01FDF35
S315000009501305200067800000130101F623244109D6
S315000009602322510923206109232E7107232C810795
S31500000970232A9107232AD100232E1108232C81082C
S31500000980232A910823282109232631092328A10790
S315000009902326B10793F6160023261101930C0500B2
S315000009A0938B0500130C0600930A0700138B0700B0
S315000009B0130A08006384060E37F40F0033648500BB
S315000009C0630E080C638A053063000638B71400000E
S315000009D013890480330924019384F4FF6F00C00057
S315000009E013040402630C890A8327040013D7C70083
S315000009F03377970093D78701B3E6E700E38206FED5
S31500000A00E39077FFE31EECFC9305040013068102D6
S31500000A1013850C00EFF01FCC8327C10013870A0053
S31500000A209306100013060C0093850B001305810234
S31500000A30E7000A00E30605FA6F00800DB71900000B
S31500000A4093870980330DF4009389F9FF8327040007
S31500000A50930504001306810213D9C70093D48701B6
S31500000A6033793901B3E7240113850C00130404021A
S31500000A7063840702EFF01FC68327C10013870A00AD
S31500000A8093061000130609009385040013058102DE
S31500000A90E7000A00631E0506E31AA4FB03274101CB
S31500000AA0B707100093840780137D2700B71D000049
S31500000AB013774700B3E49C002324E100938D0D8057
S31500000AC0371700009387F7FFB38DB4019309F7FF3B
S31500000AD0232EF10003A304001359C300135483010A
S31500000AE033733901630A0D00B3676400638C070032
S31500000AF0638E0B04638C8B0463F66A019307100004
S31500000B00630CF40893840402E396B4FD1305000015
S31500000B108320C1090324810983244109032901098A
S31500000B208329C108032A8108832A4108032B010867
S31500000B30832BC107032C8107832C4107032D010753
S31500000B40832DC1061301010A6780000063040C00AF
S31500000B50E3146CFAE3020AFA130681029385040091
S31500000B6013850C0023286100EFF0DFB60323010193
S31500000B708327C10013870A0013060300930620008B
S31500000B809305040013058102E7000A00032301010F
S31500000B90E30405F66FF0DFF7930700026302F31034
S31500000BA0B71700009387B7FF3379F9009307B004AE
S31500000BB06308F90E83278100E38607F49307600034
S31500000BC0E312F3F483A7040137F40F0013871A0026
S31500000BD0139307013373F300B707F0FF3373F30082
S31500000BE033648300130904086F0000016384BB02A9
S31500000BF013048400E30889F08327040013D6C70092
S31500000C0093D5870133763601B3E6C500E38206FE47
S31500000C10E39E0BFC63040C00E31CCCFCE30A0AFC19
S31500000C2093D6570013F5060693F7F701B367F50059
S31500000C3093F6F601A304F1022304D10283264400AD
S31500000C408327C100232CE1001395460093D8C600E4
S31500000C50B7061000B3F8A80013080500138506F0C0
S31500000C608326C101B3F8A8003378A800B3E868006A
S31500000C703348D800130581029306400023286100FB
S31500000C80232A81022326110323280103E7000A00F1
S31500000C900323010103278101E30C05F46FF05FE7ED
S31500000CA003A58400E30805F08328C10083264101DB
S31500000CB013080A0093070B0013871A0013060C008B
S31500000CC093850B0023286100EFF01FC90323010160
S31500000CD0E30205EE6FF0DFE3E30206D63719000004
S31500000CE093090980B30934011309F9FF6F00C000A5
S31500000CF013040402E38489DA8327040013D7C700A8
S31500000D0093D48701B377270133E7F400E30207FEA4
S31500000D10E310FCFE930504001306810213850C0004
S31500000D20EFF05F9B8327C10013870A00930610002C
S31500000D3013060C009385040013058102E7000A00E0
S31500000D40E30805FA6FF0DFDC371900009309098024
S31500000D50B30934011309F9FF6F00C000130404023C
S31500000D60E38E89D28327040093D4C700B3F4240109
S31500000D7093D7870133E79700E30207FEE390FBFE74
S31500000D80930504001306810213850C00EFF09F946F
S31500000D908327C10013870A009306100013860400F8
S31500000DA093850B0013058102E7000A00E30805FAA4
S31500000DB06FF01FD6638405066306060603A80500C2
S31500000DC037071000130307F09356580093F80606EA
S31500000DD01378F80193F6F60133E808012300D600EC
S31500000DE0A300060183A745009306F7FF2326B60056
S31500000DF013D7C700939547003377B700337767005B
S31500000E00B3F765003365A700B3C7D7002322A60052
S31500000E102324F60013050000678000001305100068
S31500000E206780000013052000678000009308080013
S31500000E301388070093070700130700006FF0DFB160
S31500000E40638C070013074000638CE6009386F6FF69
S31500000E5013071000637AD702032545006780000058
S31500000E608325050003264500832685000327C50044
S31500000E7023A0B70023A2C7000325450023A4D7005B
S31500000E8023A6E70067800000130705009308050303
S31500000E900328070083254700032687008326C7000B
S31500000EA023A0070123A2B70023A4C70023A6D700C7
S31500000EB01307070193870701E31C17FD8326070025
S31500000EC00327470023A0D70023A2E70003254500F8
S31500000ED06780000083A7C1C9638E0704F3750430D9
S31500000EE083A641CA1356F5411376F6013306A600CA
S31500000EF01356564093967600B386C6009396260000
S31500000F00B387D70037270000B387E70083A607001B
S31500000F10130710003317A7001347F7FF3377D700DF
S31500000F2023A0E70093F7850073A0073013050000A0
S31500000F3067800000130510006780000083A7C1C901
S31500000F40638C07047376043003A741CA9356F541B0
S31500000F5093F6F601B386A60093D65640131777008C
S31500000F603307D70013172700B387E700372700009A
S31500000F70B387E70083A60700130710003315A70001
S31500000F803365D50023A0A7009377860073A00730AA
S31500000F90130500006780000013051000678000003D
S31500000FA093050500930600001306000013050000D4
S31500000FB06F004040130101FF9305000023248100C8
S31500000FC02326110013040500EF00004A03A581C67D
S31500000FD08327850263840700E78007001305040062
S31500000FE0EF301002130101FF23248100B7570000E0
S31500000FF037540000130484AD9387C7ADB387874089
S31500001000232291002326110093D4274063800402F3
S315000010109387C7FF33848700832704009384F4FFF4
S315000010201304C4FFE7800700E39804FE8320C10091
S31500001030032481008324410013010101678000001D
S31500001040130101FF232481002320210137540000CE
S3150000105037590000930744AD130949AD3309F940E8
S315000010602326110023229100135929406300090207
S31500001070130444AD930400008327040093841400F2
S3150000108013044400E7800700E31899FE3754000074
S3150000109037590000930744AD130989AD3309F94068
S315000010A01359294063000902130444AD9304000058
S315000010B0832704009384140013044400E780070088
S315000010C0E31899FE8320C100032481008324410094
S315000010D0032901001301010167800000130101FCCF
S315000010E0232C81021304050013850500232A91028F
S315000010F0232E110293840500EF000023B75700004A
S31500001100938707A72324F102930710002326F102F1
S315000011109307010213071500232AF1009307200005
S31500001120232091022322A102232EE100232CF10089
S31500001130630A0408832784016382070883258400E1
S31500001140B7570000938747AB6382F50AB75700008D
S31500001150938747A96380F50AB7570000938747A787
S31500001160638EF5088397C50013972701634207022C
S3150000117003A70506B7260000B3E7D700B7E6FFFFCB
S315000011809386F6FF3377D7002396F50023A0E5066E
S315000011901306410113050400EF00D0088320C103A4
S315000011A0032481033335A0003305A0408324410383
S315000011B01365A500130101046780000013050400F0
S315000011C0EF0050058327840183258400E39A07F600
S315000011D0130504002326B100EF00D0038325C100C8
S315000011E0B7570000938747ABE392F5F68325440093
S315000011F06FF05FF7832584006FF0DFF68325C40068
S315000012006FF05FF6130101FC232C8102232A910261
S3150000121003A481C793040500232E1102EF00C0101A
S31500001220B7570000938707A72324F10293071000FE
S315000012302326F1029307010213071500232AF10062
S3150000124093072000232091022322A102232EE100EE
S31500001250232CF100630A04088327840163820708AC
S3150000126083258400B7570000938747AB6382F50A4E
S31500001270B7570000938747A96380F50AB757000060
S31500001280938747A7638EF5088397C50013972701B1
S315000012906342070203A70506B7260000B3E7D70097
S315000012A0B7E6FFFF9386F6FF3377D7002396F50060
S315000012B023A0E5061306410113050400EF0080761E
S315000012C08320C103032481033335A0003305A040E6
S315000012D0832441031365A500130101046780000000
S315000012E013050400EF00007383278401832584001F
S315000012F0E39A07F6130504002326B100EF00807178
S315000013008325C100B7570000938747ABE392F5F6F4
S31500001310832544006FF05FF7832584006FF0DFF6C6
S315000013208325C4006FF05FF6937735001307050039
S31500001330639C0704B7867F7F9386F6F79305F0FFD5
S315000013400326070013074700B377D600B387D700F5
S31500001350B3E7C700B3E7D700E384B7FE8346C7FF0A
S315000013600346D7FF8347E7FF3307A740638006049A
S31500001370630A06023335F0003305E5001305E5FF81
S3150000138067800000E38806FA834707001307170003
S3150000139093763700E39807FE3307A7401305F7FF58
S315000013A0678000001305D7FF678000001305C7FF9D
S315000013B06780000083A741CB6382070603A7470027
S315000013C01308F001634EE80893182700630C050222
S315000013D003A887086306080893182700330E180128
S315000013E02320CE0003230810130610003316E60050
S315000013F03363C300232068102320DE0893062000F1
S31500001400630ED5021307170023A2E700B38717015F
S3150000141023A4B7001305000067800000938841E409
S3150000142023AA11CB13070000938741E4E30807F8CA
S315000014300327000023A4E7086FF05FF8832648100F
S31500001440130717001305000033E6C6002322C81051
S3150000145023A2E700B387170123A4B7006780000023
S315000014601305F0FF67800000130101FC23206103D0
S315000014702328210303A941CB232E1102232C810209
S31500001480232A9102232631032324410323225103D5
S31500001490232E7101232C8101232A91012328A101E6
S315000014A02326B1016306090A130C0500938A050079
S315000014B0930B1000930CF0FF83244900032D890839
S315000014C01384F4FF6346040863820A0E63020D0860
S315000014D093942400B3099D00B30499006F00400162
S315000014E01304F4FF9389C9FF9384C4FF630294072E
S315000014F083A7C907E396FAFE032A490083A7440097
S315000015001307FAFF6308E40823A20400E38A07FC32
S3150000151003270D10B3968B0033F7E6006308070622
S3150000152003274D1083A5C9FFB3F6E600638A0606B6
S3150000153013850500E78007000327490083A741CBF1
S315000015406314EA00E30EF9F813890700E39607F639
S315000015508320C10303248103832441030329010358
S315000015608329C102032A8102832A4102032B010235
S31500001570832BC101032C8101832C4101032D010121
S31500001580832DC1001301010467800000E780070076
S315000015906FF09FFA23228900130A04006FF01FF7E9
S315000015A013050C00E78007006FF01FF963020D0AB0
S315000015B0939D2400B309B9011387F4FF83A749005B
S315000015C0B30DBD01138A04006304E40623A20900D7
S315000015D0638E070203270D10B3968B0033F7E600E0
S315000015E0630E070403274D1083A5CDFFB3F6E6006F
S315000015F0639A060413050C00E7800700832449005C
S3150000160083A741CBE3129AF4E310F9F41304F4FF31
S315000016109389C9FF938DCDFFE30C94F3832449008E
S3150000162083A749001387F4FF138A0400E310E4FA42
S3150000163023228900130A04006FF09FF9E780070050
S315000016406FF0DFFB13850500E78007006FF01FFBD7
S3150000165093992400B30939016F00000323A20900FE
S315000016601304F4FF638C0700E78007008324490016
S3150000167083A741CBE31A9AECE39827ED9389C9FF38
S31500001680E30894ED832449001387F4FF83A74900F8
S31500001690138A0400E31487FC23228900130A04003A
S315000016A06FF01FFCB73500009385C5686F00500BBF
S315000016B0130101FF23229100130640069384F5FFD0
S315000016C0B384C40223202101138905002324810049
S315000016D02326110093850407EF00D0131304050099
S315000016E0630005021305C5002320040023222401FC
S315000016F02324A4001386440693050000EF10004F30
S315000017008320C100130504000324810083244100C3
S31500001710032901001301010167800000130101FE86
S315000017202328210103A981C623263101232E110076
S3150000173083278901232C8100232A91002324410138
S3150000174093090500638A070A130989049304F0FFC5
S31500001750130A400083274900032489009387F7FF73
S3150000176063D807006F00400813044406638E97068B
S315000017700317C4009387F7FFE31807FEB707FFFFB9
S315000017809387170023200406232004002322040045
S31500001790232404002326F40023280400232A04001B
S315000017A0232C04001306800093050000130584050E
S315000017B0EF10C043232A0402232C0402232404042A
S315000017C0232604048320C101130504000324810198
S315000017D083244101032901018329C100032A8100D1
S315000017E0130101026780000003240900630C040052
S315000017F0130904006FF01FF613050900EF004005FA
S315000018006FF09FF49305C01913850900EF0090004F
S3150000181013040500630605021305C5002320040012
S31500001820232244012324A400130600199305000073
S31500001830EF10C03B23208900130904006FF09FF1CD
S31500001840232009009307C00023A0F9006FF09FF73B
S31500001850130101FE03A781C6B7170000232C8100E0
S31500001860232E1100232A910023282101232631014A
S315000018702324410123225101232061019387476AD2
S315000018802324F5022324050423260504232805041E
S31500001890130405006302E51613050400EFF01FE8C4
S315000018A02322A40013050400EFF05FE72324A4001D
S315000018B013050400EFF09FE6832444002326A400CA
S315000018C09307400023A6F40013068000930500004A
S315000018D023A0040623A0040023A2040023A40400DA
S315000018E023A8040023AA040023AC0400138584055E
S315000018F0EF10C02F373B000003298400B73A0000E1
S31500001900373A0000B7390000130B4B2A938A8A3006
S31500001910130A0A3993898940B707010023A2640391
S3150000192023A4540323A6440323A8340323A0940228
S31500001930938797002326F90013068000930500007D
S315000019402320090623200900232209002324090055
S3150000195023280900232A0900232C090013058905D9
S31500001960EF10C0288324C400B707020023226903AE
S315000019702324590323264903232839032320290333
S315000019809387270123A6F40023A0040623A00400BE
S3150000199023A2040023A4040023A8040023AA04000D
S315000019A023AC04001385840513068000930500000C
S315000019B0EF10C0239307100023A2640323A454034B
S315000019C023A6440323A8340323A094028320C10141
S315000019D0232CF400032481018324410103290101FE
S315000019E08329C100032A8100832A4100032B0100B9
S315000019F0130101026780000093071000232CF500F5
S31500001A006FF09FE903A581C6B73500009385C568C9
S31500001A106F00005583278501639407006FF05FE32D
S31500001A2067800000832786006388073083D7C50058
S31500001A30130101FD23248102232C4101232A510194
S31500001A40232611022322910223202103232E310172
S31500001A502328610123267101232481012322910178
S31500001A602320A10113F78700130A0600930A050035
S31500001A70138405006306070803A705016302070828
S31500001A8013F7270083240A00630C070883278402C0
S31500001A9083250402370B0080930900001309000018
S31500001AA0134B0BC01386090013850A006302090451
S31500001AB09306090063742B0193060B00E780070069
S31500001AC06352A02683278A00B389A9003309A94057
S31500001AD03385A7402324AA006300052083278402B8
S31500001AE0832504021386090013850A00E31209FC04
S31500001AF083A9040003A94400938484006FF09FFA2D
S31500001B009305040013850A00EF1010176314053AB5
S31500001B108357C40083240A0013F72700E31807F647
S31500001B2013F7170063160712832C8400032504009D
S31500001B30370B0080934BEBFF130C000013090000DA
S31500001B40134BFBFF630E090E13F7072063080724E8
S31500001B50138D0C00636E992D13F70748630A070867
S31500001B60832944018325040113071900939619005C
S31500001B70B386360193D9F601330DB540B389D90042
S31500001B8093D919403307A7011386090063F6E900C4
S31500001B90930907001306070093F707406386072C8F
S31500001BA09305060013850A00EF00C046930C050056
S31500001BB0630A052E8325040113060D00EF00104C61
S31500001BC08357C40093F7F7B793E707082316F40083
S31500001BD03385AC01B387A941232894012320A400AF
S31500001BE0232A3401930C09002324F400130D090061
S31500001BF013060D0093050C00EF00D0630327840045
S31500001C008327040093090900B30C9741B387A70102
S31500001C10232494012320F4001309000003268A00DC
S31500001C20330C3C01B309364123243A016386090A81
S31500001C30832C8400032504008357C400E31609F0AF
S31500001C4003AC040003A94400938484006FF09FEF63
S31500001C50130B000013050000130C0000930900008D
S31500001C606380090E6306050E93070B00938B09002C
S31500001C7063F43701938B07000325040083270401CF
S31500001C808326440163F8A7000329840033892601CB
S31500001C906340790F63C4DB1A832784028325040219
S31500001CA013060C0013850A00E780070013090500D8
S31500001CB0635AA006330B2B4113051000630C0B046B
S31500001CC003268A00330C2C01B389294133092641A6
S31500001CD023242A01E31609F8130500008320C10214
S31500001CE00324810283244102032901028329C101BD
S31500001CF0032A8101832A4101032B0101832BC100A1
S31500001D00032C8100832C4100032D010013010103E4
S31500001D10678000009305040013850A00EF10106524
S31500001D20E30005FA8317C40093E707042316F400BB
S31500001D301305F0FF6FF09FFA13050000678000009F
S31500001D4083A9440003AC040093848400E38A09FE5B
S31500001D50138609009305A00013050C00EF009025DB
S31500001D60630C051213051500330B85416FF0DFEF89
S31500001D7093050C0013060900EF00D04B83270400DF
S31500001D809305040013850A00B38727012320F40076
S31500001D90EF10D05DE30005F26FF0DFF88327040152
S31500001DA063E2A70483274401636EF90293060900E0
S31500001DB063F42B0193060B00B3C6F60203278402D5
S31500001DC08325040213060C0013850A00B386F60267
S31500001DD0E700070093090500E356A0F433093941EB
S31500001DE06FF0DFE393890C0063749901930909008E
S31500001DF01386090093050C00EF00D0438327840067
S31500001E0003270400B3873741330737012324F4003F
S31500001E102320E400E39407FC9305040013850A00DD
S31500001E20EF10D054E31005F0330939416FF01FDF8E
S31500001E30930C0900130D09006FF09FDB13860B004E
S31500001E4093050C00EF00103F03278400832704004E
S31500001E5013890B0033077741B38777012324E40006
S31500001E602320F4006FF01FE513850A00EF0050668B
S31500001E70930C0500E31E05D48325040113850A008F
S31500001E80EF1010798317C4001307C00023A0EA00DF
S31500001E9093F7F7F76FF05FE993871900138B070045
S31500001EA06FF0DFDC1307C0008317C40023A0EA002D
S31500001EB06FF09FE71305F0FF6FF05FE2130101FE7D
S31500001EC02328210123263101232441012322510104
S31500001ED023206101232E1100232C8100232A910047
S31500001EE0138B0500930A8504130A0000930910005A
S31500001EF01309F0FF83A44A0003A48A009384F4FF25
S31500001F0063C604028357C4009384F4FF63FCF9009C
S31500001F108317E4001305040063862701E7000B001E
S31500001F20336AAA0013044406E39E24FD83AA0A002A
S31500001F30E3920AFC8320C101032481018324410129
S31500001F40032901018329C100832A4100032B0100D3
S31500001F5013050A00032A81001301010267800000AD
S31500001F60130101FD23202103232E3101232C4101DE
S31500001F70232A5101232861012326710123261102F8
S31500001F802324810223229102930A0500938B0500E4
S31500001F90130B8504130A0000930910001309F0FFC0
S31500001FA083244B0003248B009384F4FF63C804024C
S31500001FB08357C4009384F4FF63FEF9008317E4009B
S31500001FC09305040013850A0063862701E7800B004A
S31500001FD0336AAA0013044406E39C24FD032B0B007A
S31500001FE0E3100BFC8320C1020324810283244102F7
S31500001FF0032901028329C101832A4101032B01011F
S31500002000832BC10013050A00032A81011301010372
S3150000201067800000130101FD232E310123261102E2
S31500002020232481022322910223202103232C410110
S31500002030232A5101232861012326710123248101CA
S31500002040232291019387B5001307600193090500C8
S315000020506366F7069307000163E6B71EEF00D046F6
S3150000206093040001930780011306200037590000EE
S31500002070130909B4B307F90003A44700138787FFC0
S31500002080630AE420832744008326C40003268400D1
S3150000209093F7C7FFB307F40003A747002326D6002C
S315000020A023A4C600136717001385090023A2E700BF
S315000020B0EF00D041130584006F00801993F487FF69
S315000020C063C2071863E0B418EF0010409307701F4F
S315000020D063FC974493D794006386071A130740005E
S315000020E06362F73C93D764001386970313858703CF
S315000020F09316360037590000130909B4B306D90000
S3150000210003A44600938686FF638686029305F00045
S315000021106F000001635207320324C400638C8600FB
S315000021208327440093F7C7FF33879740E3D4E5FE40
S315000021301306050003240901930889006308141790
S31500002140032544009306F0001375C5FFB3079540B9
S3150000215063C2F640232A19012328190163DC073CD0
S315000021609307F01F63E0A72E937785FF9387870079
S3150000217083254900B307F90083A6070013555500C8
S31500002180130710003317A7003367B700938587FF3F
S315000021902326B4002324D4002322E90023A08700A9
S315000021A023A686009357264093051000B395F500A5
S315000021B06368B710B3F7E5006394070293951500BB
S315000021C01376C6FFB3F7E50013064600639A0700C9
S315000021D093951500B3F7E50013064600E38A07FE5C
S315000021E01308F000131336003303690013050300C8
S315000021F08327C500130E06006308F52C03A74700C6
S315000022001384070083A7C7001377C7FFB306974059
S315000022106348D82CE3C206FE3307E4008326470052
S31500002220032684001385090093E616002322D700AF
S315000022302326F60023A4C700EF00502913058400C7
S315000022406F0000019307C00023A0F90013050000EA
S315000022508320C1020324810283244102032901024F
S315000022608329C101032A8101832A4101032B01012C
S31500002270832BC100032C8100832C41001301010331
S315000022806780000093060020130600041305F00380
S315000022906FF05FE603A4C70013062600E39487DE0B
S315000022A00324090193088900E31C14E90327490064
S315000022B09357264093051000B395F500E37CB7EEDF
S315000022C003248900832A440013FBCAFF63689B002A
S315000022D0B3079B401307F000634CF71283AA01CCA7
S315000022E003A7C1C79307F0FF330A6401B38A5401F9
S315000022F06304F734B71700009387F700B38AFA0030
S31500002300B7F7FFFFB3FAFA0093850A0013850900B1
S31500002310EF0090739307F0FF930B05006306F52813
S3150000232063624529138C01ED83250C00B385BA0041
S315000023302320BC0093870500630EAA3883A6C1C775
S315000023401307F0FF6386E63A338A4B41B307FA0078
S315000023502320FC0093FC7B0063820C30B71700003F
S31500002360B38B9B4193858700938B8B00B3859541F7
S31500002370B38A5B019387F7FFB385554133FAF500BE
S3150000238093050A0013850900EF00106C9307F0FF10
S31500002390630AF53A33057541B30A450183250C00F6
S315000023A02324790193EA1A00B305BA002320BC005E
S315000023B023A25B01630224359306F00063F26635BF
S315000023C00327440093074BFF93F787FF1377170004
S315000023D03367F7002322E400130650003307F400A6
S315000023E02322C7002324C70063E8F63683AA4B00DE
S315000023F013840B0003A7C1CB6374B70023AEB1CA25
S3150000240003A781CB6376B71A23ACB1CA6F00401A13
S3150000241013E714002322E400B30494002324990054
S3150000242093E717001385090023A2F400EF00100AB2
S31500002430130584006FF0DFE18326C40003268400C1
S315000024406FF05FC593579500130740006372F7144A
S3150000245013074001636AF7229386C7059385B7057C
S3150000246093963600B306D90083A70600938686FFA7
S315000024706388F61C03A747001377C7FF6376E5005A
S3150000248083A78700E398F6FE83A6C70003274900C3
S315000024902326D4002324F40023A4860023A6870041
S315000024A06FF05FD0130740016376F71213074005FC
S315000024B0636AF71E93D7C4001386F7061385E706EB
S315000024C0931636006FF01FC3130E1E0093773E005F
S315000024D013058500638E07108327C5006FF0DFD1D3
S315000024E00326840093E514002322B4002326F60075
S315000024F023A4C700B3049400232A99002328990033
S3150000250093E7160023A6140123A4140123A2F400C2
S315000025103307E400138509002320D700EF00007B72
S31500002520130584006FF0DFD213D63400938784003E
S315000025306FF0DFB33307A400832747001385090034
S3150000254093E717002322F700EF0040781305840075
S315000025506FF01FD013E714002322E400B3049400A5
S31500002560232A99002328990013E7170023A61401AC
S3150000257023A4140123A2E4003305A4002320F500BC
S3150000258013850900EF008074130584006FF05FCC9B
S315000025909357650093869703938587039396360032
S315000025A06FF05FEC630E241103248900832A440034
S315000025B093FACAFFB3879A4063E69A001307F000BE
S315000025C0E348F7E413850900EF00407013050000A7
S315000025D06FF01FC81386C7051385B7059316360017
S315000025E06FF05FB1832783001306F6FF6390671CC5
S315000025F093773600130383FFE39607FE032749000C
S3150000260093C7F5FFB3F7E7002322F900939515006A
S31500002610E3E8B7CAE38605CA33F7F500631A07008D
S315000026209395150033F7F500130E4E00E30A07FEE7
S3150000263013060E006FF01FBB938A0A016FF0DFCC02
S315000026400325490093D52540130710003317B7001B
S315000026503367A7002322E9006FF09FE3B3855B0190
S31500002660B305B0409395450113DA450193050A0079
S3150000267013850900EF00503D9307F0FFE31CF5D0EA
S31500002680130A00006FF09FD1130740056360F70837
S315000026909357C5009386F7069385E706939636000B
S315000026A06FF05FDC130740156360F70893D7F400FB
S315000026B01386870713857707931636006FF09FA357
S315000026C0138C01ED83270C00B387FA002320FC004E
S315000026D06FF0DFC613174A01E31207C60324890009
S315000026E0B30A5B0193EA1A00232254016FF09FD0CC
S315000026F023AE71C76FF01FC613840B006FF09FCF18
S315000027009307100023A2FB006FF0DFEB13074015C1
S315000027106362F7069357F5009386870793857707D5
S31500002720939636006FF01FD4130740556362F70681
S3150000273093D724011386D7071385C7079316360048
S315000027406FF05F9B938C8CFFB38A9A01B38A7A41B0
S31500002750130A00006FF09FC49305840013850900D7
S31500002760EF10006B0324890083250C00832A4400A4
S315000027706FF05FC8130740556364F702935725014E
S315000027809386D7079385C707939636006FF09FCD3C
S315000027909306803F1306F0071305E0076FF09F9539
S315000027A09306803F9305E0076FF0DFCB8327490050
S315000027B06FF0DFE59377350093F6F50F638A07022E
S315000027C09307F6FF630E06021306F0FF6F00800103
S315000027D01305150013773500630E07009387F7FF7F
S315000027E06380C70203470500E314D7FE6780000035
S315000027F093070600130730006366F7026396070027
S315000028001305000067800000B307F5006F00C000E5
S3150000281013051500E306F5FE03470500E31AD7FE88
S315000028206780000093F5F50F93988500B3E5B8002F
S3150000283093980501B3E8B8003708FFFEB785808096
S315000028401308F8EF938505081303300003270500E6
S3150000285033C7E800330607011347F7FF3377E6006F
S315000028603377B700E31207FA9387C7FF13054500CE
S31500002870E36EF3FCE39A07F86FF09FF8B3C7A50081
S3150000288093F73700B308C5006398070E9307300027
S3150000289063F4C70E93773500930605006398070423
S315000028A013F6C8FF930706FE63ECF60663FCC60242
S315000028B013870500938706000328070093874700C0
S315000028C01307470023AE07FFE3E8C7FE9307F6FFAB
S315000028D0B387D74093F7C7FF93874700B386F600C1
S315000028E0B385F50063EE16096780000003C705008F
S315000028F09386160093F73600A38FE6FE93851500A0
S31500002900E38007FA03C705009386160093F736009F
S31500002910A38FE6FE93851500E39A07FC6FF05FF838
S3150000292083A3450083AF850003AFC50083AE0501D1
S3150000293003AE450103A3850103A8C50103A705024C
S3150000294083A205009386460223A076FE23AE56FC9C
S3150000295023A2F6FF23A4E6FF23A6D6FF23A8C6FFDD
S3150000296023AA66FE23AC06FF23AEE6FE9385450248
S31500002970E3E8F6FA6FF09FF393060500E37615F7A2
S315000029809387F8FF13861600B387D74093B787005F
S3150000299033B7C8001347170093C71700B3F7E7000C
S315000029A013870600638E0706B3E7B60093F7370072
S315000029B0639807061303100063E4C8003383D84006
S315000029C01378C3FF938705003308B80003A60700F2
S315000029D09387470013074700232EC7FEE39807FF98
S315000029E09377C3FFB385F500E300F3F003C7050053
S315000029F093871700B386F600A38FE6FEE3F616EF7D
S31500002A0003C71500938716002380E600E3FE17ED43
S31500002A1083C72500A380F600678000001306160012
S31500002A2083C7050093851500A30FF6FEE36816FF1E
S31500002A306780000063F6A502B387C5006372F502DE
S31500002A403307C5006306061883C6F7FF9387F7FFAB
S31500002A501307F7FF2300D700E398F5FE6780000011
S31500002A609307F00063E6C70A930705001303F6FF12
S31500002A70630806169386150033E7B7003386D740FA
S31500002A801377370013363600133717001346160030
S31500002A903377C7006300071213379300631C0710D0
S31500002AA01308D3FF13582800130E13001308180039
S31500002AB01386050093860700130700008328060087
S31500002AC0130717001306460023A016019386460037
S31500002AD0E36607FF13182800B3870701B3850501CE
S31500002AE03303034163060E0F03C705002380E70087
S31500002AF06300030E83C6150013071000A380D700DA
S31500002B006308E30C03C725002381E7006780000004
S31500002B10B3E7A50093F73700639E070A930806FFFD
S31500002B2093F808FF938808013308150113870500F9
S31500002B3093070500832607001307070193870701FC
S31500002B4023A8D7FE832647FF23AAD7FE832687FF1F
S31500002B5023ACD7FE8326C7FF23AED7FEE31CF8FCC3
S31500002B601377C600B38515019376F600630C070646
S31500002B7083A805001387C6FF1308300023A017019A
S31500002B80637EE80083A84500938686FF23A217018B
S31500002B906376D80083A6850023A4D7001377C7FFE2
S31500002BA01307470013763600B387E700B385E500C1
S31500002BB06FF0DFEB130313003383670003C7F6FFE1
S31500002BC09387170093861600A38FE7FEE39867FEA8
S31500002BD0678000001303F6FF930705006FF09FE977
S31500002BE067800000138606006FF05FE81303F000AD
S31500002BF013070500637EC3029377F7006390070A05
S31500002C0063920508937606FF1376F600B386E60010
S31500002C102320B7002322B7002324B7002326B700BA
S31500002C2013070701E366D7FE6314060067800000FA
S31500002C30B306C3409396260097020000B38656005B
S31500002C406780C6002307B700A306B7002306B700B0
S31500002C50A305B7002305B700A304B7002304B700F4
S31500002C60A303B7002303B700A302B7002302B700EC
S31500002C70A301B7002301B700A300B7002300B700E4
S31500002C806780000093F5F50F93968500B3E5D500B0
S31500002C9093960501B3E5D5006FF0DFF6939627000E
S31500002CA097020000B386560093820000E78006FA7A
S31500002CB093800200938707FF3307F7403306F60039
S31500002CC0E378C3F66FF0DFF36780000067800000EB
S31500002CD0130101FD2320210323261102232481024F
S31500002CE023229102232E3101232C4101232A510153
S31500002CF0232861012326710123248101130906007B
S31500002D006386051C1384050093090500EFF0DFFBBD
S31500002D109304B9009307600163FE970E93F484FF52
S31500002D201387040063CE040E63EC240F8327C4FFCD
S31500002D30930A84FF13FAC7FF338B4A01635EEA12D4
S31500002D40B7560000938B06B403A68B0083264B0070
S31500002D506300661F13F6E6FF3306CB000326460024
S31500002D60137616006316061493F6C6FF3306DA00CA
S31500002D706358E60E93F7170063940702032C84FF4B
S31500002D80338C8A4183274C0093F7C7FFB386D7005D
S31500002D90B38B460163DAEB34B30BFA0063D4EB2C46
S31500002DA09305090013850900EFF0CFA61309050066
S31500002DB0630C05048327C4FF130785FF93F7E7FF1A
S31500002DC0B387FA006386E7281306CAFF9307400213
S31500002DD063E6C7301307300183260400636EC720FD
S31500002DE0930705001307040023A0D7008326470096
S31500002DF023A2D7000327870023A4E7009305040036
S31500002E0013850900EF10C00013850900EFF01FECD1
S31500002E106F00C0019304000113070001E3F824F1D9
S31500002E209307C00023A0F900130900008320C10204
S31500002E3003248102832441028329C101032A8101DB
S31500002E40832A4101032B0101832BC100032C81003E
S31500002E50130509000329010213010103678000001D
S31500002E608327CB0003278B00130A0600338BCA0087
S31500002E702326F70023A4E70083A74A0033079A40D6
S31500002E809306F00093F7170063ECE606B367FA00C3
S31500002E9023A2FA0083274B0093E717002322FB00A7
S31500002EA013850900EFF09FE2130904006FF01FF885
S31500002EB093F71700E39607EE032C84FF338C8A41C1
S31500002EC083274C0093F7C7FF6FF01FED03248102A1
S31500002ED08320C10283244102032901028329C101FF
S31500002EE0032A8101832A4101032B0101832BC1009F
S31500002EF0032C810093050600130101036FF08F91E7
S31500002F00B3E7970023A2FA00B3859A001367170068
S31500002F1023A2E50083274B009385850013850900CE
S31500002F2093E717002322FB00EF00906E6FF05FF728
S31500002F3093F6C6FF3306DA00938504016350B60E96
S31500002F4093F71700E39E07E4032C84FF338C8A4132
S31500002F5083274C0093F7C7FFB386D700338B460110
S31500002F60E34CBBE28327CC0003278C001306CAFF81
S31500002F70930640022326F70023A4E70013098C00DA
S31500002F8063ECC62693053001032704009307090066
S31500002F9063F2C5022324EC00032744009307B00123
S31500002FA02326EC0063E2C7260327840093070C015F
S31500002FB01304840023A0E7000327440023A2E700AC
S31500002FC00327840023A4E70033079C00B3079B4034
S31500002FD023A4EB0093E717002322F70083274C0076
S31500002FE01385090093F71700B3E4970023229C008A
S31500002FF0EFF0DFCD6FF09FE32320D500832644005A
S315000030001307B0012322D500636EC71683268400FA
S3150000301013078400930785006FF01FDDB38A9A00BB
S31500003020B307964023A45B0193E7170023A2FA0097
S315000030308327C4FF138509001309040093F71700BB
S31500003040B3E49700232E94FEEFF05FC86FF01FDE07
S315000030508327C5FF93F7C7FF330AFA00338B4A016C
S315000030606FF09FE18327CC0003278C001306CAFF6D
S31500003070930640022326F70023A4E70013098C00D9
S31500003080330B7C0163E2C60E93053001032704006F
S315000030909307090063F2C5022324EC0003274400CA
S315000030A09307B0012326EC0063E0C71003278400D2
S315000030B093070C011304840023A0E70003274400B0
S315000030C0138A0B00930A0C0023A2E700032784004F
S315000030D01304090023A4E7006FF01FDA9305040028
S315000030E0EFF05F956FF09FD18327CB0003278B000E
S315000030F01306CAFF930640022326F70023A4E7001F
S3150000310003278C008327CC0013098C00330B7C012A
S315000031102326F70023A4E70063E8C60493063001DC
S315000031200327040093070900E3F8C6F82324EC00FC
S31500003130032744009307B0012326EC0003278400ED
S31500003140E3F8C7F62328EC000327C40093074002E0
S31500003150232AEC00032704016304F60693078C0177
S31500003160130404016FF05FF59305040013050900CD
S31500003170EFF05F8C13040900138A0B00930A0C000E
S315000031806FF09FCF032784002324E5000327C400A4
S315000031902326E500832604016302F60413070401CF
S315000031A0930705016FF05FC4832784002328FC0082
S315000031B08327C400232AFC0003270401E310D6FA60
S315000031C0232CEC000327440193070C02130484010B
S315000031D0232EEC00032704006FF01FEE2328D500F2
S315000031E0832644011307840193078501232AD5000A
S315000031F0832684016FF05FBF930504001305090061
S31500003200EFF05F836FF05FDC832784002328FC00E8
S315000032108327C400232AFC00032704016308D60081
S3150000322093078C01130404016FF0DFD8232CEC0004
S315000032300327440193070C0213048401232EEC0098
S31500003240032704006FF01FD7130101FF2324810019
S31500003250232291001304050013850500232611007F
S3150000326023A201CCEF1040649307F0FF630CF50036
S315000032708320C1000324810083244100130101013E
S315000032806780000083A741CCE38407FE8320C1004A
S315000032902320F4000324810083244100130101014B
S315000032A067800000130101FF2324810013840500B9
S315000032B08395E50023261100EF10001363400502F5
S315000032C0832744058320C100B387A700232AF4047B
S315000032D00324810013010101678000008357C400A5
S315000032E037F7FFFF1307F7FFB3F7E7008320C100A7
S315000032F02316F400032481001301010167800000F6
S3150000330013050000678000008397C500130101FEC6
S31500003310232C8100232A9100232821012326310111
S31500003320232E110013F707101384050093040500DC
S315000033308395E5001309060093890600631E0702BC
S3150000334037F7FFFF1307F7FFB3F7E7002316F4007D
S31500003350032481018320C101938609001306090015
S315000033608329C10003290101138504008324410137
S31500003370130101026F00C009930620001306000026
S31500003380EF00D0598317C4008315E4006FF05FFB8C
S31500003390130101FF23248100138405008395E500B2
S315000033A023261100EF0090579307F0FF6308F502FC
S315000033B08357C400371700008320C100B3E7E70036
S315000033C09397070193D70741232AA4042316F400F1
S315000033D00324810013010101678000008357C400A4
S315000033E037F7FFFF1307F7FFB3F7E70093970701D8
S315000033F093D707418320C1002316F40003248100DC
S3150000340013010101678000008395E5006F004022EB
S31500003410130101FF13870500232481002322910055
S31500003420930506001304050013860600130507001E
S315000034302326110023A201CCEF10C04D9307F0FF05
S31500003440630CF5008320C10003248100832441001E
S31500003450130101016780000083A741CCE38407FEC6
S315000034608320C1002320F40003248100832441002B
S315000034701301010167800000130101FF232291005F
S3150000348083A481C723248100232021012326110040
S3150000349013090500138405006386040083A78401CD
S315000034A0638E0706B7570000938747AB6302F4089D
S315000034B0B7570000938747A9630EF410B75700006B
S315000034C0938747A76306F4140317C40093170701ED
S315000034D09376870093D7070163880606832604013F
S315000034E06388060813F61700630C060A03264401D0
S315000034F023240400130500003306C040232CC40017
S31500003500638E060A8320C1000324810083244100C0
S3150000351003290100130101016780000013850400DF
S31500003520EFE04FCFB7570000938747ABE312F4F8AD
S3150000353003A444000317C40093170701937687007A
S3150000354093D70701E39C06F893F607016386060CFA
S3150000355093F74700639407088326040113678700DF
S31500003560931707012316E40093D70701E39C06F699
S3150000357013F6072893050020E306B6F69305040024
S3150000358013050900EF0010400317C4008326040149
S315000035909317070193D7070113F61700E31806F4EC
S315000035A013F62700930500006314060083254401E3
S315000035B02324B40013050000E39606F493F70708E6
S315000035C0E38207F4136707042316E4001305F0FFEC
S315000035D06FF05FF303A484006FF01FEF83254403AD
S315000035E0638E0500930744046388F50013050900FC
S315000035F0EF0010020317C400232A040283260401E5
S315000036001377B7FD232204002320D4006FF01FF5A3
S3150000361003A4C4006FF05FEB930790002320F9002A
S31500003620136707042316E4001305F0FF6FF09FED00
S31500003630130101FF232481002322910013040500B6
S31500003640138505002326110023A201CCEF10403676
S315000036509307F0FF630CF5008320C100032481006B
S3150000366083244100130101016780000083A741CC38
S31500003670E38407FE8320C1002320F4000324810095
S31500003680832441001301010167800000130101FF3B
S3150000369023261100232481002322910023202101C7
S315000036A06384050C13840500930405006306050076
S315000036B083278501638E070CB7570000938747ABB6
S315000036C06304F40CB7570000938747A96306F40C0C
S315000036D0B7570000938747A76304F40E8317C40007
S315000036E0638407089305040013850400EF00C021D6
S315000036F08327040313090500638A07008325040250
S3150000370013850400E7800700634C05088357C4004F
S3150000371093F70708639E070883254403638C050017
S31500003720930744046386F50013850400EF00406E9A
S31500003730232A040283258404638805001385040074
S31500003740EF00006D232404048320C1002316040027
S315000037500324810083244100130509000329010085
S3150000376013010101678000008320C100032481004A
S3150000377013090000832441001305090003290100F1
S31500003780130101016780000003A444006FF01FF5D8
S31500003790EFE04FA86FF05FF203A484006FF01FF410
S315000037A08357C4001309F0FF93F70708E38607F66B
S315000037B08325040113850400EF0080656FF0DFF5B3
S315000037C003A4C4006FF09FF1130101FF232611002B
S315000037D02324810023229100232021016304050C68
S315000037E083A481C7130405006386040083A78401AC
S315000037F0638E070CB7570000938747AB6304F40C3E
S31500003800B7570000938747A96308F40CB757000021
S31500003810938747A76306F40E8317C40063840708DB
S315000038209305040013850400EF00000E83270403AC
S3150000383013090500638A0700832504021385040023
S31500003840E7800700634E05088357C40093F707080F
S315000038506390070A83254403638C05009307440499
S315000038606386F50013850400EF00805A232A0402BC
S31500003870832584046388050013850400EF004059FE
S31500003880232404048320C10023160400032481009A
S3150000389083244100130509000329010013010101D6
S315000038A0678000008320C100032481001309000003
S315000038B083244100130509000329010013010101B6
S315000038C06780000003A444006FF01FF51385040011
S315000038D0EFE04F946FF01FF203A484006FF0DFF364
S315000038E08357C4001309F0FF93F70708E38407F62C
S315000038F08325040113850400EF0080516FF09FF5C6
S3150000390003A4C4006FF05FF18397C500130101FEA5
S31500003910232C810023263101232E1100232A910016
S315000039202328210193F687001384050093090500D7
S31500003930639C0610371700001307078083A645000F
S31500003940B3E7E7002396F5006356D0180327C402B1
S31500003950630C070C9397070193D70701B71600006E
S3150000396083A40900B3F6D70023A009008325040227
S3150000397063980616930610001306000013850900C7
S31500003980E70007009307F0FF630EF5188357C4009E
S315000039900327C4028325040293F74700638E0700BA
S315000039A083264400832744033305D54063860700F6
S315000039B0832704043305F54013060500930600002B
S315000039C013850900E70007009307F0FF631EF51053
S315000039D003A709008317C400630A07169306D001DC
S315000039E06306D700930660016314D70C832604018F
S315000039F037F7FFFF1307F77FB3F7E7002316F40047
S31500003A00232204002320D4008325440323A0990005
S31500003A10638C0500930744046386F500138509004B
S31500003A20EF00003F232A0402130500008320C10192
S31500003A300324810183244101032901018329C10053
S31500003A40130101026780000003A90501E30E09FCCA
S31500003A5083A405001397070113570701137737004F
S31500003A6023A02501B38424419307000063140700B3
S31500003A7083A745012324F400634890006FF0DFFA22
S31500003A803309A900E35290FA8327840283250402AE
S31500003A90938604001306090013850900E7800700D2
S31500003AA0B384A440E34EA0FC8357C4001305F0FF83
S31500003AB093E707048320C1012316F4000324810140
S31500003AC083244101032901018329C1001301010255
S31500003AD06780000003A70504E34AE0E66FF0DFF421
S31500003AE0032544056FF05FEB8357C40037F7FFFFEC
S31500003AF01307F77FB3F7E7008326040193970701BF
S31500003B0093D7074113D7C7002316F40023220400D6
S31500003B102320D40093771700E38807EE232AA40412
S31500003B206FF09FEE83A70900E38207E61307D00133
S31500003B306388E702130760016384E7028357C400C2
S31500003B4093E707042316F4006FF05FEE37F7FFFFE5
S31500003B501307F77F83260401B3F7E7006FF09FFA98
S31500003B6023A09900130500006FF05FEC83A7050101
S31500003B70638E0708130101FE232C8100232E1100FA
S31500003B801304050063060500832785016380070685
S31500003B90B7570000938747AB6386F504B757000015
S31500003BA0938747A9638CF504B7570000938747A707
S31500003BB0638AF5048397C500638C07001305040028
S31500003BC0032481018320C101130101026FF0DFD3B9
S31500003BD08320C101032481011305000013010102A2
S31500003BE067800000832544006FF0DFFC2326B100C8
S31500003BF0EFD05FE28325C1006FF09FF98325840033
S31500003C006FF05FFB8325C4006FF0DFFA1305000039
S31500003C10678000006304050A83270501130101FE7E
S31500003C20232C8100232E1100130405006380070650
S31500003C3003A581C7630605008327850163820706FE
S31500003C40B7570000938747AB630CF402B7570000E1
S31500003C50938747A9630CF406B7570000938747A7D5
S31500003C60630AF4068317C4006382070293050400FF
S31500003C70032481018320C101130101026FF0DFC813
S31500003C80032445008317C400E39207FE8320C10185
S31500003C90032481011305000013010102678000005F
S31500003CA02326A100EFD01FD7B7570000938747AB55
S31500003CB00325C100E31CF4F86FF09FFC03A581C641
S31500003CC0B74500009385C5B66FE08FA9032485002C
S31500003CD06FF05FF90324C5006FF0DFF8130101FEF2
S31500003CE023263101B7590000232C8100232A910095
S31500003CF02328210123244101232E1100138A0500C4
S31500003D0013090500938909B4EFE01FFC03A7890096
S31500003D10B71700001384F7FE832447003304444199
S31500003D2093F4C4FF330494001354C4001304F4FF43
S31500003D301314C400634EF400930500001305090034
S31500003D40EFF08FD083A78900B38797006308F50249
S31500003D5013050900EFE09FF78320C10103248101C9
S31500003D6083244101032901018329C100032A81001B
S31500003D70130500001301010267800000B3058040AF
S31500003D8013050900EFF04FCC9307F0FF6308F50425
S31500003D90938701ED03A7070083A68900B3848440B7
S31500003DA093E41400330487401305090023A2960008
S31500003DB023A08700EFE09FF18320C1010324810146
S31500003DC083244101032901018329C100032A8100BB
S31500003DD0130510001301010267800000930500001F
S31500003DE013050900EFF04FC603A789009306F000FC
S31500003DF0B307E540E3DEF6F483A6C1C793E71700F1
S31500003E002322F7003305D54023A8A1EC6FF05FF419
S31500003E10638A0512130101FF2324810023229100E6
S31500003E20138405009304050023261100EFE0DFE963
S31500003E300328C4FF130784FFB75500009377E8FFF4
S31500003E403306F700938505B48326460003A585004F
S31500003E5093F6C6FF630AC51A2322D6001378180004
S31500003E603305D6006310080A032384FF03284500A0
S31500003E70375500003307674083288700130585B44C
S31500003E80B3876700137818006380A8140323C7005C
S31500003E9023A66800232413016300081E93E6170077
S31500003EA02322D7002320F6009306F01F63E8F60AC4
S31500003EB093F687FF9386860003A54500B386D50053
S31500003EC003A6060013D8570093071000B3970701FF
S31500003ED0B3E7A700138586FF2326A7002324C70080
S31500003EE023A2F50023A0E6002326E6000324810092
S31500003EF08320C100138504008324410013010101BE
S31500003F006FE0DFDC0325450013751500631E05020F
S31500003F1037550000B387D700130585B4832686007E
S31500003F2093E817003308F7006384A6160326C60035
S31500003F3023A6C6002324D600232217012320F80037
S31500003F406FF09FF66780000093E61700232ED4FEDD
S31500003F502320F6009306F01FE3FCF6F493D69700B1
S31500003F60130640006368D60E93D66700138896033F
S31500003F701386860313183800338805018326080044
S31500003F80130888FF6304D81203A646001376C6FFFB
S31500003F9063F6C70083A68600E318D8FE03A8C6000A
S31500003FA0232607012324D700032481008320C10090
S31500003FB02324E800138504008324410023A6E60099
S31500003FC0130101016FE09FD0631208148325C60018
S31500003FD003268600B387F600032481002326B60055
S31500003FE023A4C50093E617008320C1002322D7002F
S31500003FF0138504003307F700832441002320F700CC
S31500004000130101016FE09FCC13781800B387D70026
S3150000401063100802032584FF3307A7408326C700E1
S3150000402003268700B387A7002326D60023A4C6004D
S3150000403013E6170083A601C82322C70023A4E500C0
S31500004040E3E6D7EA83A501CC13850400EFF01FC988
S315000040506FF0DFE9130640016374D60213064005CC
S315000040606364D60693D6C7001388F6061386E6065B
S31500004070131838006FF05FF0B387D7006FF01FEAB0
S315000040801388C6051386B605131838006FF0DFEEE1
S3150000409023AAE50023A8E5002326A7002324A700DA
S315000040A0232217012320F8006FF05FE403A54500E3
S315000040B013562640930710003396C7003366A600B2
S315000040C023A2C5006FF0DFED13064015636CD60022
S315000040D093D6F700138886071386760713183800D9
S315000040E06FF09FE913064055636CD60093D62701FF
S315000040F01388D6071386C607131838006FF0DFE754
S315000041001308803F1306E0076FF01FE793E61700DA
S315000041102322D7002320F6006FF05FDD130101FF95
S3150000412013870500232481002322910093050600AE
S315000041301304050013860600130507002326110045
S3150000414023A201CCEF00D0069307F0FF630CF50025
S315000041508320C1000324810083244100130101014F
S315000041606780000083A741CCE38407FE8320C1005B
S315000041702320F4000324810083244100130101015C
S315000041806780000083D7C500130101F8232C810640
S31500004190232E1106232A91062328210723263107D9
S315000041A02324410713F7270013840500630C070235
S315000041B09387750423A0F50023A8F5009307100044
S315000041C023AAF5008320C10703248107832441071E
S315000041D0032901078329C106032A81061301010861
S315000041E0678000008395E5009304050063CC05080D
S315000041F013068100EF00C054634405088327C100FD
S31500004200B7F9000037190000B3F9F900B7E7FFFF67
S31500004210B389F90093B9190013090980130A0040FC
S315000042209305004013850400EFD0DFDE8317C4003A
S31500004230630E0506371700001307476A23A4E40236
S3150000424093E707082316F4002320A4002328A400DC
S31500004250232A4401639A0908B367F9008320C1073A
S315000042602316F40003248107832441070329010749
S315000042708329C106032A810613010108678000000D
S315000042808357C40093F707081309000063860704E1
S315000042909305000413850400EFD0DFD78317C4000D
S315000042A0130A000493090000E31605F813F7072024
S315000042B0E31A07F093F7C7FF93E727001307740481
S315000042C02316F400930710002320E4002328E400BB
S315000042D0232AF4006FF01FEF130A00409309000031
S315000042E0930500406FF01FF48315E4001385040066
S315000042F0EF00404B631605008317C4006FF0DFF52F
S315000043008357C40093F7C7FF93E7170093970701F6
S3150000431093D707416FF05FF4130101F92324810657
S31500004320138405008395E5002322910623202107A7
S3150000433023261106930406001389060063CA0504A2
S3150000434013068100EF00C03F634405040327C10044
S31500004350B7F700008320C106B3F7E70037E7FFFF92
S31500004360B387E7000324810693B717002320F900DB
S315000043709307004023A0F40037150000832441066C
S315000043800329010613050580130101076780000054
S315000043908317C4002320090093F7070863840702E4
S315000043A08320C106032481069307000423A0F4009A
S315000043B003290106832441061305000013010107A2
S315000043C0678000008320C10603248106930700400E
S315000043D023A0F400032901068324410613050000E7
S315000043E01301010767800000130101FF1387050011
S315000043F0232481002322910093050600130405005F
S3150000440013860600130507002326110023A201CCFC
S31500004410EF00403F9307F0FF630CF5008320C100D7
S3150000442003248100832441001301010167800000F9
S3150000443083A741CCE38407FE8320C1002320F40038
S3150000444003248100832441001301010167800000D9
S31500004450130101FE2328210103A90500232C810055
S31500004460232A9100232E1100232631012324410102
S3150000447013840500930405006302090483290900D7
S315000044806388090203AA0900630E0A0083250A004D
S3150000449063840500EFF0DFFB93050A001385040033
S315000044A0EFF01F979385090013850400EFF05F96E0
S315000044B09305090013850400EFF09F95930504000A
S315000044C0032481018320C101032901018329C1003D
S315000044D0032A81001385040083244101130101028C
S315000044E06FF01F9383A781C76384A72483274502A0
S315000044F0130101FD232291022326110223248102A6
S3150000450023202103232E3101232C4101232A51018B
S3150000451023286101232671012324810193040500C8
S31500004520638A071C83A5C70063840504130900007A
S3150000453093090008B387250103A40700630004025A
S31500004540930504000324040013850400EFF05F8C38
S31500004550E31804FE83A7440283A5C7001309490094
S31500004560E31A39FD13850400EFF09F8A83A74402FE
S3150000457083A507006380051C13850400EFF05F899F
S3150000458083A544016386050013850400EFF05F8868
S3150000459083A74402638807009385070013850400F8
S315000045A0EFF01F8783A58403638605001385040047
S315000045B0EFF01F8683A5C4036386050013850400F8
S315000045C0EFF01F8583A504046386050013850400A8
S315000045D0EFF01F8483A5C4056386050013850400D8
S315000045E0EFF01F8383A58405638605001385040009
S315000045F0EFF01F8283A5440363860500138504003C
S31500004600EFF01F8183A78401638C070E83A78402C2
S3150000461013850400E780070003A484046302040EE4
S3150000462003290400630C0908832909006382090829
S3150000463003AA090063080A06832A0A00638E0A048D
S3150000464003AB0A0063040B04832B0B00638A0B0283
S3150000465003AC0B0063000C0283250C006386050087
S3150000466013850400EFF0DFDE93050C0013850400CC
S31500004670EFF00FFA93850B0013850400EFF04FF966
S3150000468093050B0013850400EFF08FF893850A005D
S3150000469013850400EFF0CFF793050A001385040095
S315000046A0EFF00FF79385090013850400EFF04FF63E
S315000046B09305090013850400EFF08FF593050400B8
S315000046C0032481028320C102032901028329C10137
S315000046D0032A8101832A4101032B0101832BC10097
S315000046E0032C810013850400832441021301010376
S315000046F06FF00FF283254501E39805E86FF09FEA16
S315000047008320C1020324810283244102032901027A
S315000047108329C101032A8101832A4101032B010157
S31500004720832BC100032C8100130101036780000065
S315000047306780000083A54401E39805E46FF0DFE598
S31500004740130101FF13870500232481002322910012
S315000047501304050093050600130507002326110020
S3150000476023A201CCEF00C0249307F0FF630CF500F1
S315000047708320C10003248100832441001301010129
S315000047806780000083A741CCE38407FE8320C10035
S315000047902320F40003248100832441001301010136
S315000047A067800000130101FF23248100232291006A
S315000047B013040500138505002326110023A201CC4E
S315000047C0EF0040209307F0FF630CF5008320C10043
S315000047D00324810083244100130101016780000046
S315000047E083A741CCE38407FE8320C1002320F40085
S315000047F00324810083244100130101016780000026
S3150000480073001000630E0608130101FE232C8100BD
S31500004810232A910023282101232631012324410143
S31500004820232E1100930406001389050013040000CB
S315000048309309A000130AD0006F00C000630E450163
S31500004840638E8402EF00C01EB30789002380A70091
S3150000485013041400E31435FF8320C101130504007B
S315000048600324810183244101032901018329C10015
S31500004870032A810013010102678000008320C10121
S3150000488003248101032901018329C100032A810030
S31500004890138504008324410113010102678000008F
S315000048A0130500006780000083A601CD930705006D
S315000048B06386060203A7C1CC630C070203A581CC5D
S315000048C063040504B307F50063F6E70023A4F1CCFF
S315000048D0678000001305F0FF67800000138681EFF4
S315000048E023A8C1CC03A7C1CC938681EFE31807FCAC
S315000048F003A701D2B7E5FFFF3307B70023A6E1CC34
S3150000490003A581CCE31005FC23A4D1CC13850600B6
S315000049106FF05FFB130101FE23263101232E1100E8
S31500004920232C8100232A91002328210193090600C4
S3150000493063020602138405003389C5009304A000B0
S31500004940034504006308950213041400EF004008B1
S31500004950E31824FF8320C10103248101832441013C
S3150000496003290101138509008329C10013010102EE
S31500004970678000001305D000EF00800513041400C3
S315000049801305A000EF00C004E31C24FB8320C10133
S3150000499003248101832441010329010113850900B0
S315000049A08329C10013010102678000000000000096
S315000049B093078005138541CC2320F5001305F0FFEE
S315000049C067800000130510006780000000000000EB
S315000049D083A781CA638A070203A741CD9305100006
S315000049E0630AB702930620006308D70003A787006F
S315000049F06340070223AAD1CC03A7470013774700D9
S31500004A00E30C07FE23A0A700130500006780000043
S31500004A1023AAB1CC03A7470013770720E30407FEB8
S31500004A2003A7470013770720E31607FE6FF09FFDE5
S31500004A3003A781CA13050000630C070083274700FC
S31500004A4093F71700E38C07FE032507001375F50F90
S30900004A506780000075
S31500004A5448656C6C6F20576F726C640A0000000026
S31500004A64454E44204F462054455354000A00000046
S31500004A74000000000000000000000000000000002C
S31500004A84000000000000000000000000000000001C
S31500004A94000000000000000000000000000000000C
S31500004AA400000000000000000000000000000000FC
S31500004AB400000000000000000000000000000000EC
S31500004AC400000000000000000000000000000000DC
S30900004AD47403000061
S30900004AD830030000A1
S31500004ADC0000000000000000B44A0000944A0000E8
S31500004AEC744A0000000000000000000000000000F6
S31500004AFC00000000000000000000000000000000A4
S31500004B0C0000000000000000000000000000000093
S31500004B1C0000000000000000000000000000000083
S31500004B2C0000000000000000000000000000000073
S31500004B3C000000000000000000000000404B0000D8
S31500004B4C404B0000484B0000484B0000504B000007
S31500004B5C504B0000584B0000584B0000604B0000B7
S31500004B6C604B0000684B0000684B0000704B000067
S31500004B7C704B0000784B0000784B0000804B000017
S31500004B8C804B0000884B0000884B0000904B0000C7
S31500004B9C904B0000984B0000984B0000A04B000077
S31500004BACA04B0000A84B0000A84B0000B04B000027
S31500004BBCB04B0000B84B0000B84B0000C04B0000D7
S31500004BCCC04B0000C84B0000C84B0000D04B000087
S31500004BDCD04B0000D84B0000D84B0000E04B000037
S31500004BECE04B0000E84B0000E84B0000F04B0000E7
S31500004BFCF04B0000F84B0000F84B0000004C000096
S31500004C0C004C0000084C0000084C0000104C000042
S31500004C1C104C0000184C0000184C0000204C0000F2
S31500004C2C204C0000284C0000284C0000304C0000A2
S31500004C3C304C0000384C0000384C0000404C000052
S31500004C4C404C0000484C0000484C0000504C000002
S31500004C5C504C0000584C0000584C0000604C0000B2
S31500004C6C604C0000684C0000684C0000704C000062
S31500004C7C704C0000784C0000784C0000804C000012
S31500004C8C804C0000884C0000884C0000904C0000C2
S31500004C9C904C0000984C0000984C0000A04C000072
S31500004CACA04C0000A84C0000A84C0000B04C000022
S31500004CBCB04C0000B84C0000B84C0000C04C0000D2
S31500004CCCC04C0000C84C0000C84C0000D04C000082
S31500004CDCD04C0000D84C0000D84C0000E04C000032
S31500004CECE04C0000E84C0000E84C0000F04C0000E2
S31500004CFCF04C0000F84C0000F84C0000004D000091
S31500004D0C004D0000084D0000084D0000104D00003D
S31500004D1C104D0000184D0000184D0000204D0000ED
S31500004D2C204D0000284D0000284D0000304D00009D
S31500004D3C304D0000384D0000384D0000404D00004D
S31500004D4C404D0000484D0000484D0000504D0000FD
S31500004D5C504D0000584D0000584D0000604D0000AD
S31500004D6C604D0000684D0000684D0000704D00005D
S31500004D7C704D0000784D0000784D0000804D00000D
S31500004D8C804D0000884D0000884D0000904D0000BD
S31500004D9C904D0000984D0000984D0000A04D00006D
S31500004DACA04D0000A84D0000A84D0000B04D00001D
S31500004DBCB04D0000B84D0000B84D0000C04D0000CD
S31500004DCCC04D0000C84D0000C84D0000D04D00007D
S31500004DDCD04D0000D84D0000D84D0000E04D00002D
S31500004DECE04D0000E84D0000E84D0000F04D0000DD
S31500004DFCF04D0000F84D0000F84D0000004E00008C
S31500004E0C004E0000084E0000084E0000104E000038
S31500004E1C104E0000184E0000184E0000204E0000E8
S31500004E2C204E0000284E0000284E0000304E000098
S31500004E3C304E0000384E0000384E0000404E000048
S31500004E4C404E0000484E0000484E0000504E0000F8
S31500004E5C504E0000584E0000584E0000604E0000A8
S31500004E6C604E0000684E0000684E0000704E000058
S31500004E7C704E0000784E0000784E0000804E000008
S31500004E8C804E0000884E0000884E0000904E0000B8
S31500004E9C904E0000984E0000984E0000A04E000068
S31500004EACA04E0000A84E0000A84E0000B04E000018
S31500004EBCB04E0000B84E0000B84E0000C04E0000C8
S31500004ECCC04E0000C84E0000C84E0000D04E000078
S31500004EDCD04E0000D84E0000D84E0000E04E000028
S31500004EECE04E0000E84E0000E84E0000F04E0000D8
S31500004EFCF04E0000F84E0000F84E0000004F000087
S31500004F0C004F0000084F0000084F0000104F000033
S31500004F1C104F0000184F0000184F0000204F0000E3
S31500004F2C204F0000284F0000284F0000304F000093
S31100004F3C304F0000384F0000384F0000D6
S31500004F48E04A000000000000704F00000000F0FF7B
S31100004F58E04A0000FFFFFFFF000002001F
S30900004F640000000043
S70540000000BA
