S00F00006D61745F6D756C2E7372656326
S214010074130101812324817E2322917E232E317D47
S214010084232C417D2328617D2326717D2324817DB4
S2140100942326117E2320217F232A517D1305A000C8
S2140100A4130101F6EF00005DB717000037F4FFFFF8
S2140100B4938707861304447AB3872700338487001B
S2140100C4130AA40093040A0093092107930B0A0058
S2140100D4130C8106130BA00013896BFF930A0C0003
S2140100E4EF00405A33656503938A1A001309190011
S2140100F4A30FA9FEEF00005933656503A38FAAFE7B
S214010104E31079FF930BA900130CAC00E3963BFDB7
S2140101149308C10C93078106130E44061383080043
S2140101241389E70613050300138808009307C5F926
S214010134930604001306000003C7060083C50700E0
S2140101449387A700938616003307B7023306E600A3
S214010154E394A7FE2300C8001385170013081800AC
S214010164E316A9FC13040A009388A8006306CA01CF
S214010174130AAA006FF01FFBB7470A00938717A458
S2140101842328F112B72A020093073000130BA000AC
S214010194138464FF138A07000346040093070113BC
S2140101A43385470193858AEAEF00C0591304140086
S2140101B4330AAA00E31294FE93070113B387470197
S2140101C423806701A38007009304A40093071A0001
S2140101D4E39034FDB72602001387C6EA83C5C6EA50
S2140101E40346170083462700034737001305011308
S2140101F4B307F5002380B700A380C7002381D70087
S214010204A381E700130A4A0093092107130BA000F0
S214010214938469FF13040A0003C6040093070113B9
S2140102243385870093858AEAEF00C05193841400CE
S2140102343304A400E39299FE93070113B38787005E
S21401024423806701A38007009389A900130A140079
S214010254E31039FD37270200930707EB034607EB44
S21401026483C6170003C7270083C737009305011306
S214010274338A4501A301FA009307C10C2300CA007F
S214010284A300DA002301EA00130444001309610DF4
S2140102949389E706130AA000930469FF03C60400C2
S2140102A4930701133385870093858AEAEF00804913
S2140102B4938414003304A400E31299FE93070113F4
S2140102C4B387870023804701A38007001309A90089
S2140102D413041400E31239FD13050113EF00C038AB
S2140102E437250200130545EBEF0000381301010A18
S2140102F48320C17E0324817E8324417E0329017EDB
S2140103048329C17D032A817D832A417D032B017DB7
S214010314832BC17C032C817C130500001301017F10
S21401032467800000930700006388070037350100E3
S214010334130505646FA08073678000009731010080
S214010344938101511385C11C138681223306A6406D
S21401035493050000EF00C01617A5000013054571AC
S21401036463080500173500001305852DEFA00070FE
S214010374EF00400B0325010093054100130600001E
S214010384EFF01FCF6F00000703C7411E6312070477
S214010394130101FF2324810013840700232611007F
S2140103A493070000638A070037350200130505002A
S2140103B497000000E7000000930710008320C100A7
S2140103C42382F11E032481001301010167800000CA
S2140103D46780000093070000638C0700373502002E
S2140103E49385811E130505001703000067000000AE
S2140103F467800000130101FF930500002324810098
S2140104042326110013040500EF20505803A5811B71
S2140104148327C50363840700E780070013050400E8
S214010424EFD04024130101FF23248100232021015E
S2140104343734020037390200930704041309090408
S2140104443309F94023261100232291001359294028
S21401045463000902130404049304000083270400C0
S2140104649384140013044400E7800700E31899FEFC
S2140104743734020037390200930704041309890448
S2140104843309F9401359294063000902130404048B
S2140104949304000083270400938414001304440087
S2140104A4E7800700E31899FE8320C1000324810036
S2140104B48324410003290100130101016780000020
S2140104C41303F00013070500637EC3029377F70056
S2140104D46390070A63920508937606FF1376F6007F
S2140104E4B386E6002320B7002322B7002324B700EF
S2140104F42326B70013070701E366D7FE6314060035
S21401050467800000B306C340939626009702000056
S214010514B38656006780C6002307B700A306B70054
S2140105242306B700A305B7002305B700A304B70045
S2140105342304B700A303B7002303B700A302B7003D
S2140105442302B700A301B7002301B700A300B70035
S2140105542300B7006780000093F5F50F9396850096
S214010564B3E5D50093960501B3E5D5006FF0DFF644
S2140105749396270097020000B386560093820000E4
S214010584E78006FA93800200938707FF3307F74054
S2140105943306F600E378C3F66FF0DFF3130101FCCC
S2140105A4232C81021304050013850500232A9102D6
S2140105B4232E110293840500EF004020B727020082
S2140105C4938707EC2324F102930710002326F102F4
S2140105D4032784039307010293061500232AF100D7
S2140105E493072000232091022322A102232ED10067
S2140105F4232CF10083258400630E07048397C5002A
S214010604139727016342070203A74506B72600008E
S214010614B3E7D700B7E6FFFF9386F6FF3377D70035
S2140106242396F50023A2E5061306410113050400EB
S214010634EF3080498320C103032481033335A000AE
S2140106443305A040832441031365A5001301010467
S21401065467800000130504002326B100EF20107AFA
S2140106648325C1006FF09FF99305050003A5011CBE
S2140106746FF0DFF283A7011C23A4A70A23A6070AA7
S2140106846780000003A8011CB785954C9385D5F2B5
S2140106948326880A0327C80AB387B6021386170077
S2140106A4B337F6002324C80A37F651581306D64240
S2140106B43386C6023307B702B3B6B6023307C7009A
S2140106C43307D700B387E700139517002326F80AE4
S2140106D41355150067800000130101F6930EC10837
S2140106E4232AF10837030080B707FFFF138E05009E
S2140106F41343F3FF2326D1089387872093058100AC
S21401070493860E00232E1106232AF1002328E108DE
S214010714232C0109232E11092324C101232CC101F1
S214010724232E6100232861002322D101EF00C0118A
S21401073483278100238007008320C1071301010A50
S21401074467800000130E0500130101F603A5011CC2
S214010754930E8108232AF10837030080B707FFFFA9
S2140107641343F3FF2324C1082326D1089387872044
S2140107741386050093860E0093058100232E110629
S214010784232AF1002328E108232C0109232E110929
S2140107942324C101232CC101232E610023286100D7
S2140107A42322D101EF00400A83278100238007001A
S2140107B48320C1071301010A67800000937735007F
S2140107C413070500639C0704B7867F7F9386F6F7B5
S2140107D49305F0FF0326070013074700B377D600F7
S2140107E4B387D700B3E7C700B3E7D700E384B7FE00
S2140107F48346C7FF0346D7FF8347E7FF3307A74070
S21401080463800604630A06023335F0003305E50007
S2140108141305E5FF67800000E38806FA83470700AF
S2140108241307170093763700E39807FE3307A740AC
S2140108341305F7FF678000001305D7FF67800000E4
S2140108441305C7FF67800000130101E12326111E6B
S2140108542320211F2324811D2320A11D138C050081
S21401086413090600232AD1002324811E2322911E64
S214010874232E311D232C411D232A511D2328611D9E
S2140108842326711D2322911D232EB11B130D050052
S214010894EF60C04183270500138507002328F10272
S2140108A4EFF0DFF18357CC002328010E232A010E33
S2140108B4232C010E232E010E93F707082326A102EB
S2140108C46388070083270C01639407006F10805226
S2140108D49307C1102322F10E93880700B72702005D
S2140108E4938787F0232CF100B727020093874708E4
S2140108F4130B09002324F10083470B002326010E62
S2140109042324010E23200102232A0102232C01029F
S214010914232E010223240104232601042326010095
S2140109246384072213040B00130750026384E72C25
S2140109348347140013041400E39A07FEB3046441C6
S214010944630464210327C10E8327810E23A0680153
S214010954330797009387170023A298002326E10EF6
S2140109642324F10E1307700093888800634CF7283C
S2140109740327C10083470400330797002326E100B9
S2140109846384071C83441400A303010C130414009A
S214010994930DF0FF93090000130A00001309A00544
S2140109A4930A9000930BA002938C0800130414007E
S2140109B4938704FE6364F904032781019397270050
S2140109C4B387E70083A70700678007009309000041
S2140109D4938604FD8344040093972900B387370163
S2140109E493971700B389F600938604FD1304140045
S2140109F4E3F2DAFE938704FEE370F9FC93880C00B5
S214010A046384041423069114A303010C930A1000AF
S214010A14930C1000130BC11423280100930D00003E
S214010A242324010223220102232E0100937B2A00A0
S214010A3463840B00938A2A0013794A088327C10E1C
S214010A4463160900B3865941E34CD05C0347710C25
S214010A54630A07020327810E9306710C23A0D800AC
S214010A6493871700930610001307170023A2D800D4
S214010A742326F10E2324E10E930670009388880042
S214010A8463C8E648638A0B020327810E9306810C2A
S214010A9423A0D80093872700930620001307170086
S214010AA423A2D8002326F10E2324E10E9306700018
S214010AB493888800E3CEE66413070008E300E93C64
S214010AC4B38D9D41E34EB04713770A10E31A072608
S214010AD40327810EB387970123A068011307170024
S214010AE423A298012326F10E2324E10E9306700017
S214010AF463CCE65493888800137A4A0063060A0096
S214010B04B38459416342905663D4590193890A00C8
S214010B140327C100330737012326E100E39C074C72
S214010B24832701012324010E63880700832501011D
S214010B3413050D00EF2050499308C110130B040050
S214010B4483470B00E39007DE8327C10E6384070007
S214010B546F1090308357CC0093F707046384070023
S214010B646F2040388320C11E0324811E0325C10043
S214010B748324411E0329011E8329C11D032A811DC5
S214010B84832A411D032B011D832BC11C032C811CAD
S214010B94832C411C032D011C832DC11B1301011F32
S214010BA46780000013050D00EF60401083274500A1
S214010BB4138507002326F104EFF05FC093070500B1
S214010BC413050D00938407002324F104EF60000E3F
S214010BD483278500232EF102638404006F10C00965
S214010BE4834404006FF09FDC83440400136A0A0202
S214010BF46FF0DFDBB3046441E31664D58347040076
S214010C046FF01FD81306410E93050C0013050D0053
S214010C14EF80D016E31005F49308C1106FF05FD58A
S214010C2493778A0093880C00638407006F1080080A
S214010C34832741011305010B23289101938777002C
S214010C4493F787FF83A5070003A6470093878700CA
S214010C54232AF100EF00914A8327010B832801011F
S214010C642328F10E8327410B232AF10E8327810BB8
S214010C74232CF10E8327C10B232EF10E1305010F2E
S214010C8423281101EF50907A2326A10C9307200004
S214010C94832801016314F5006F1080639307100025
S214010CA46314F5006F10D002930710066394F400E2
S214010CB46F20C020930710046394F4006F109050C3
S214010CC413F7F4FD9307F0FF2324E1026394FD0078
S214010CD46F10D01C930770046314F7006F20801FF5
S214010CE4832BC10F23284105032E010F832E410FA9
S214010CF4032F810F93670A1063D40B006F208005BE
S214010D04232C0104138A07002328010003278102E8
S214010D14930760046314F7006F10102A93075004B6
S214010D24232011056314F7006F204005930A010B75
S214010D349307010D1307C10C1308C10D93860D000B
S214010D441306200093850A0013050D002328C10B02
S214010D542322C103232AD10B2320D103232CE10B05
S214010D64232EE101232E710BEF405043032781020A
S214010D7493077004032FC101832E0102032E41023F
S214010D8483280104130B05006304F7006F20803FDA
S214010D948327010593F71700638407006F20400437
S214010DA48326C10DB38766412320F1020327C10CB4
S214010DB493077004232EE100032781026314F700CE
S214010DC46F10501103278102930760046314F70020
S214010DD46F10103D8327C101832581021306100479
S214010DE49387F7FF2326F10C13F7F40F93060000FD
S214010DF46398C5001307F7001377F70F93061000DF
S214010E04230AE10C1307B00263DA07000327C101C2
S214010E1493071000B387E7401307D002A30AE10C37
S214010E24130790006344F7006F20C00D1305310EBD
S214010E34930505009306A000130E300633E7D70288
S214010E4413860500138807009385F5FF1307070328
S214010E54A30FE6FEB3C7D702E3420EFF9387070349
S214010E6493F6F70FA38FD5FE9307E6FF63E4A70077
S214010E746F20C02F1307610D6F00800083C6070023
S214010E842300D7009387170013071700E398A7FEDC
S214010E949307510E1307610DB387C740B307F700D5
S214010EA41307410DB387E740232CF1028326810300
S214010EB40327010293071000B38CE60063C4E7001E
S214010EC46F2000218327C102B38CFC008327010510
S214010ED493CAFCFF93DAFA4113FAF7BF136A0A10AE
S214010EE4B3FA5C012324010223220102232E01000A
S214010EF483278105639407006F1010059307D002BA
S214010F04A303F10C930D0000938A1A006FF01FB22D
S214010F141306410E93050C0013050D00EF800066C1
S214010F24E314050E8327C10E9308C1106FF09FB515
S214010F340327810E938C1700832701029306100062
S214010F4423A068019304170013898800E3D8F636B2
S214010F549307100023A2F8002326910F2324910E51
S214010F6493077000E3C2974A8327C102032701034C
S214010F7493841400B38CFC002322F9002320E90097
S214010F842326910F2324910E9307700013098900D9
S214010F94E3CE97488327010F938614009305010A2D
S214010FA42328F10A8327410F1305010B232ED100B1
S214010FB4232AF10A8327810F2320010A2322010A07
S214010FC4232CF10A8327C10F2324010A2326010AAD
S214010FD4232EF10AEFD050658326C101832701022F
S214010FE49308890013870600938DF7FFE30C052EFB
S214010FF413081B00B38CBC01232009012322B90169
S2140110042326910F2324D10E9307700063D4D700AF
S2140110146F1000069307090113872400138908003B
S21401102493880700032681039306410D2320D900E4
S214011034B387CC002322C9002326F10E2324E10E14
S21401104493067000E3DAE6AA1306410E93050C0034
S21401105413050D00EF8080526318057A8327C10EAD
S2140110649308C1106FF05FA9930600010327810E50
S21401107463C496006F10D04FB7260200938E4607BE
S21401108413090001130A7000138B0E006F00C000D1
S214011094938404FF63569904938707011307170083
S2140110A423A0680123A228012326F10E2324E10E9E
S2140110B493888800E35EEAFC1306410E93050C0050
S2140110C413050D00EF80804B63100574938404FFB1
S2140110D48327C10E0327810E9308C110E34E99FAA4
S2140110E4930E0B00B38797001307170023A0D801AC
S2140110F423A298002326F10E2324E10E9306700002
S214011104E3D4E6A01306410E93050C0013050D0067
S214011114EF80C046631A056E8327C10E6FF0DF9E0B
S21401112483274101A303010C93880C0003AB07003A
S2140111341389470063140B006F10C0229307F0FF56
S214011144E38EFD4C13860D009305000013050B007A
S214011154232A9101EF6000472328A1008328410137
S214011164631405006F10007A83270101232A2101E5
S21401117423280100B38C67418347710C93CAFCFF93
S21401118493DAFA412324010223220102232E0100C9
S214011194B3FA5C01930D0000E38A0788938A1A0068
S2140111A46FF0DF880327410193880C00A303010C29
S2140111B48327070013074700232AE1002306F114B7
S2140111C4930A1000930C1000130BC1146FF0DF8404
S2140111D48344040093078006E386F440136A0A04F2
S2140111E46FF0CFFC8326410193770A0293880C00A3
S2140111F403A7060093864600232AD100E390072A14
S21401120493770A01638407006F10C01493770A0466
S214011214638407006F10003D137A0A2063140A00E2
S2140112246F1040138327C100130B04002300F7003B
S2140112346FF01F91834404009307C006E38CF436D1
S214011244136A0A016FF08FF603274101B787FFFF80
S21401125493C707832314F10C9307470093880C0064
S214011264232AF100832C0700B7270200938747ED52
S214011274232AF10213090000936B2A009307200026
S21401128493048007A303010C9306F0FF6386DD1E17
S214011294B3E62C0113FAFBF7639E061C63940D2434
S2140112A4E396070093FC1B00130B011BE39E0C1A29
S2140112B48347710C938A0D0063D49D01938A0C00B5
S2140112C4232801002324010223220102232E0100E4
S2140112D4E39607EC6FF08FF593880C00136A0A0106
S2140112E493770A02E38A070683274101138B770063
S2140112F4137B8BFF832C0B0003294B0093078B0076
S214011304232AF100937BFABF930700006FF09FF73F
S21401131493880C00936B0A0193F70B02E38E070A7A
S21401132483274101138B7700137B8BFF93078B0075
S214011334232AF100832C0B0003294B00930710008A
S2140113446FF05FF483440400136A0A086FF00FE633
S21401135483440400136A8A006FF04FE593880C00F7
S214011364136A0A0193770A02E38E07008327410171
S214011374138B7700137B8BFF83274B00832C0B0087
S21401138413078B00232AE10013890700E3C407022D
S2140113949307F0FF930B0A006388FD00B3E72C0163
S2140113A4937BFAF763800770E31A094E930790005C
S2140113B4E3E6974F938C0C03A307911B138A0B0048
S2140113C4930C1000130BF11A6FF09FEE8327410163
S2140113D48344040083A9070093874700232AF10066
S2140113E463D609DCB3093041136A4A006FF00FDC97
S2140113F483440400136A1A006FF04FDB8347710CB1
S21401140483440400639407DA93070002A303F10CF0
S2140114146FF0CFD983440400136A4A006FF00FD9E2
S2140114249307B00283440400A303F10C6FF00FD8B2
S2140114348344040013071400639474016F10504E20
S214011444938604FD13040700930D000063E2DAD6C5
S2140114548344040093972D00B387B701939717002D
S214011464B38DD700938604FD13041400E3F2DAFE69
S2140114746FF00FD4930B0A0093061000E386D7F29D
S21401148493062000638CD706130B011B1317D9018F
S21401149493F77C0093DC3C0093870703B36C9701B6
S2140114A413593900A30FFBFE33E72C0113060B0077
S2140114B4130BFBFFE31C07FC93F61B00638A06066B
S2140114C4930600036386D7061306E6FF9307011BFC
S2140114D4A30FDBFEB38CC740138A0B00130B060065
S2140114E46FF01FDD130710006394E7006F10101EE2
S2140114F413072000930B0A00E398E7F883264103B9
S214011504130B011B93F7FC00B387F60003C7070010
S21401151493DC4C009317C901B3EC970113594900A6
S214011524A30FEBFEB3E72C01130BFBFFE39C07FCB5
S2140115349307011BB38C6741138A0B006FF05FD7C7
S21401154413075006E356979E0327010F9305010AD6
S2140115541305010B2328E10A0327410F2322110552
S2140115642320F104232AE10A0327810F2320010AF9
S2140115742322010A232CE10A0327C10F2324010A8B
S2140115842326010A232EE10AEFD0100A8327010439
S21401159483284104631E05380327810EB7260200FB
S2140115A4938646F023A0D80093871700930610006D
S2140115B41307170023A2D8002326F10E2324E10ED5
S2140115C49306700093888800E3CCE6480327C10C91
S2140115D483260102635ED766032701038326C102BD
S2140115E49388880023ACE8FE0327810EB387D700CF
S2140115F423AED8FE130717002326F10E2324E10E8B
S2140116049306700063C0E67C032701029304F7FF88
S214011614635490CE930600010327810EE3D29646C7
S21401162413090001930C70006F00C000938404FF3B
S214011634E35899448326810093870701130717000B
S21401164423A0D80023A228012326F10E2324E10E89
S21401165493888800E3DCECFC1306410E93050C002A
S21401166413050D00EF7090716310051A8327C10EE0
S2140116740327810E9308C1106FF05FFB338959412C
S214011684635020C5130600010327810E6354260701
S214011694130E0001930B70006F00C000130909FFBD
S2140116A4635A2E05832681009387070113071700C3
S2140116B423A0D80023A2C8012326F10E2324E10E79
S2140116C493888800E3DCEBFC1306410E93050C00BB
S2140116D413050D00EF70906A63180512130E0001CE
S2140116E4130909FF8327C10E0327810E9308C1102E
S2140116F4E34A2EFB83268100B387270113071700CD
S21401170423A0D80023A228012326F10E2324E10EC8
S214011714930670009388880063D4E6BA1306410ED4
S21401172493050C0013050D00EF705065631E050C40
S214011734B38D9D418327C10E9308C1106356B0B97A
S214011744130600010327810E6352B607930B0001AB
S214011754130970006F00C000938D0DFF63D8BB059D
S21401176483268100938707011307170023A0D80057
S21401177423A278012326F10E2324E10E9388880000
S214011784E35CE9FC1306410E93050C0013050D00FA
S214011794EF70D05E631A0506938D0DFF8327C10E85
S2140117A40327810E9308C110E3CCBBFB832681007B
S2140117B4B387B7011307170023A0D80023A2B801E3
S2140117C42326F10E2324E10E9306700093888800E5
S2140117D463DCE6AE1306410E93050C0013050D00FB
S2140117E4EF70D059631205028327C10E9308C11006
S2140117F46FF08FAD1306410E93050C0013050D0013
S214011804EF70D057630E05B0832B010163840BB4CC
S21401181493850B0013050D00EF10107B6FF08FB34B
S214011824130600010327810E6344D6006F10C00C13
S21401183437260200930E46072320810423229104AF
S21401184413040D0093040C00130E000193027000A0
S214011854138C0600138D0E006F00C000130C0CFFD2
S214011864635A8E05938707011307170023A0A8015F
S21401187423A2C8012326F10E2324E10E93888800AF
S214011884E3DEE2FC1306410E93850400130504000F
S214011894EF70D04EE310051A130E0001130C0CFF63
S2140118A48327C10E0327810E9308C110930270008B
S2140118B4E34A8EFB93060C00930E0D00138C040072
S2140118C4130D04008324410403240104B387D700C1
S2140118D41307170023A2D80023A0D8012326F10E4C
S2140118E42324E10E930670009388880063D0E6965D
S2140118F41306410E93050C0013050D00EF701048F6
S214011904E31405F08327C10E9308C1106FF00F94FA
S2140119141306410E93050C0013050D00EF701046D7
S214011924E31405EE8327C10E9308C1106FF0CF9818
S2140119340326C10CE35AC0020327C1018326010210
S2140119449304070063CEE63C635690020327810E98
S214011954B387970023A068011307170023A29800F2
S2140119642326F10E2324E10E930670009388880043
S214011974E3C6E64213C7F4FF1357F741B3F4E40092
S2140119840327C101B3049740634C904C8326C101DD
S21401199413770A40B30DDB00631807528324C10C86
S2140119A40327010263C6E40013771A00E30C074019
S2140119B4032701038326C1021306700023A0E8004F
S2140119C40327810EB387D70023A2D8001307170075
S2140119D42326F10E2324E10E93888800E34AE65A6F
S2140119E4832601023307DB00B38496403307B741ED
S2140119F413890400635497001309070063562003F0
S214011A040327810EB387270123A0B8011307170004
S214011A1423A228012326F10E2324E10E9306700047
S214011A2493888800E3CCE6701347F9FF1357F74110
S214011A343377E900B384E4406350908C9306000145
S214011A440327810EE3DE960213090001930C70004E
S214011A546F00C000938404FFE35499028326810037
S214011A64938707011307170023A0D80023A2280190
S214011A742326F10E2324E10E93888800E3DCECFC94
S214011A841306410E93050C0013050D00EF70102F7D
S214011A94E31C05D68327C10E0327810E9308C110C4
S214011AA46FF05FFBE3980D90138A0B00930D000013
S214011AB4930C0000130B011B6FF08FFF93771A0032
S214011AC4639807C823A2D8002326910F2324910ED6
S214011AD49307700063CE975813072700938808016D
S214011AE46FF04FD46350B0D5130600016344B601BA
S214011AF46F10806213070001130B700093840600B5
S214011B046F000001938D0DFFE35CB71193841400FD
S214011B1483278100938C0C012322E9002320F900FA
S214011B242326910F2324910E13098900E35C9BFC61
S214011B341306410E93050C0013050D00EF701024D7
S214011B44E31405CC832CC10E8324810E1309C11022
S214011B54130700016FF01FFB8326410193770A01E7
S214011B64138746006396071A93770A04E386070EDB
S214011B748327410113090000232AE10083DC0700BF
S214011B846FF04FF88326410193770A0113874600C5
S214011B946396071693770A04E38E070E832741019B
S214011BA4232AE100839C070013D9FC41930709000B
S214011BB463D007FEB3379001330920413309F94056
S214011BC49307D002A303F10CB30C9041930B0A00C4
S214011BD4930710006FF04FEB0327410193F70B01B6
S214011BE4930647006392071093F70B04E3840708F0
S214011BF48327410113090000232AD10083DC07004F
S214011C04930710006FF00FE81306410E93050C00BE
S214011C1413050D00EF709016E31805BE832CC10E54
S214011C248324810E1309C1106FF00FB41306410EFD
S214011C3493050C0013050D00EF705014E31605BC54
S214011C44832CC10E8324810E1309C1106FF08FB447
S214011C5413771A00631407006FE01FEA6FF0DF972B
S214011C6493880C006FF00FF093070003A307F11A93
S214011C74130BF11A6FF0CFE38327C10383440400E7
S214011C84639407006FE09FD283C70700639407003D
S214011C946FE0DFD1136A0A406FE05FD18326C1008B
S214011CA4130B040093D7F6412320D7002322F70011
S214011CB46FE01FE903274101832707001307470045
S214011CC4232AE10003A6070083A6470003A787008B
S214011CD483A7C7002328C10E232AD10E232CE10E85
S214011CE4232EF10E6FE09FF9832C070013090000E1
S214011CF4232AD100930710006FF0CFD883AC0600D7
S214011D04232AE10013D9FC41930709006FF00FE879
S214011D1483AC060013090000232AE1006FF08FDE6E
S214011D2493840600E34490C26FF0DFC493880C00EA
S214011D34930B0A006FF04FDEB7270200938747ED37
S214011D4493880C00232AF10293770A026382072EF2
S214011D5483274101138B7700137B8BFF832C0B00A6
S214011D6403294B0093078B00232AF10093771A006B
S214011D74638E0700B3E72C01638A07009307000309
S214011D842304F10CA304910C136A2A00937BFABF73
S214011D94930720006FF00FCF93880C006FF04FD499
S214011DA4B7270200938787EE93880C00232AF10253
S214011DB46FF09FF983441400136A0A021304140093
S214011DC46FE0DFBE1306410E93050C0013050D00EC
S214011DD4EF70C07AE31A05A28327C10E9308C110D7
S214011DE46FF09F8283441400136A0A2013041400BC
S214011DF46FE0DFBB9305000413050D00EF40107C74
S214011E042320AC002328AC00631405006F10803334
S214011E1493070004232AFC006FE09FAB13050B0015
S214011E2423209105EFE09F998347710C934AF5FFB0
S214011E3493DAFA41232A21012328010023240102EB
S214011E4423220102232E010083280104930C05009A
S214011E54B37A5501930D0000639207B46FE01FBD7A
S214011E64930600010327810E63D49668930C000140
S214011E74930D70006F00C000938404FF63DA9C66C0
S214011E8483268100938707011307170023A0D80030
S214011E9423A298012326F10E2324E10E93888800B9
S214011EA4E3DCEDFC1306410E93050C0013050D004F
S214011EB4EF70C06CE31A05948327C10E0327810EC5
S214011EC49308C1106FF05FFB03270102832C4102C4
S214011ED4232E410123208104232231052322510389
S214011EE48329810223246103B30BEB000324C1037A
S214011EF4032A8104832AC104930470001309000190
S214011F04130B0C0063880C08639809081304F4FF88
S214011F14938CFCFF0327810EB387470123A0580146
S214011F241307170023A248012326F10E2324E10EEA
S214011F349388880063CEE410834604003386BB414D
S214011F44138C06006354D600130C060063568003F4
S214011F548326810EB387870123A0B80193861600D2
S214011F6423A288012326F10E2324D10E63C0D43480
S214011F7483460400938888001346FCFF1356F641F3
S214011F843377CC00338CE640634C8001B38DDD009F
S214011F94E39C0CF6638809709389F9FF6FF09FF749
S214011FA48326810E634889016F008005130C0CFF9C
S214011FB463588905032781009387070193861600D2
S214011FC423A0E80023A228012326F10E2324D10E00
S214011FD493888800E3DCD4FC1306410E93050B00BA
S214011FE413050D00EF70805963180558130C0CFF88
S214011FF48327C10E8326810E9308C110E34C89FB07
S21401200403278100B38787019386160023A0E8007F
S21401201423A288012326F10E2324D10E63C0D4748F
S2140120248346040093888800B38DDD006FF05FF665
S2140120348326410193770A011387460063840720A8
S21401204483AC060013090000232AE1006FF01FD2B7
S2140120541306410E93050B0013050D00EF70005295
S214012064631C05508327C10E9308C1106FF0DFEC83
S2140120741306410E93050C0013050D00EF70005076
S214012084631405F80327810E832CC10E93084111AE
S214012094130717001309C1106FE0DFF8130B011BB8
S2140120A49307000023288100232E910013040B00BC
S2140120B423223103130B0C0093840C0093090900AB
S2140120C4832CC10313FA0B40930AF00F138C0800F8
S2140120D4138907006F0040021306A0009306000050
S2140120E41385040093850900EFB01006638C094834
S2140120F493040500938905001306A00093060000C7
S2140121041385040093850900EFB0504713050503B2
S214012114A30FA4FE130919001304F4FFE30E0AFA2D
S21401212483C60C00E31AD9FAE30859FB63960940FF
S2140121349307900063E2974093080C009307011BF2
S214012144130C0B00130B0400232E91038324C101EB
S214012154832941020324010123202103B38C67410F
S214012164138A0B006FF0CF940327810EB726020063
S214012174938646F023A0D800938717009306100091
S2140121841307170023A2D8002326F10E2324E10EF9
S214012194930670009388880063CCE6066314061ED3
S2140121A48326010213771A003367D70063140700E6
S2140121B46FE09F94032701038326C10223A0E8004E
S2140121C40327810EB387F60023A2D800130717004E
S2140121D42326F10E2324E10E9306700063CAE64813
S2140121E493888800832601021307170023A0680139
S2140121F4B387F60023A2D8002326F10E2324E10E8A
S2140122049306700063C4E6006FE0DF8E6FE0DFE3E1
S2140122141306410E93050C0013050D00EF700036EE
S214012224631405DE0326C10C8327C10E9308C1106F
S2140122346FF0DFF6832B0101130D0400138C0400E9
S2140122446FF0CFDC93770A04638607268327410160
S21401225413090000232AE10083DC07006FF01FB195
S2140122641306410E93050C0013050D00EF700031A3
S214012274631C05D88327C10E9308C1106FF00FB5F0
S21401228483268100B387970023A2980023A0D80051
S214012294130717002326F10E2324E10E930670007C
S2140122A463C4E6006FE01F856FE01FDA1306410E74
S2140122B493050B0013050D00EF70402C631E052AD1
S2140122C4834604008327C10E9308C1106FF0DFCA4A
S2140122D48327010F9305010A1305010B2328F10A2D
S2140122E48327410F2320010A2322010A232AF10A04
S2140122F48327810F2324010A2326010A232CF10AAA
S2140123048327C10F232EF10AEFC01053832801013E
S214012314634A05468347710C13077004635A97266C
S21401232437280200130B88EC23280100232401021A
S21401233423220102232E0100137AFAF7930A3000AE
S214012344930C3000930D0000638407006FE01FE5D3
S2140123546FE0CFED8327C100130B04002320F700A1
S2140123646FE00FFE93076000938C0D0063E8B725BA
S21401237437280200938A0C00232A2101130BC8EF85
S2140123846FE08FE9032701038326C102938888003F
S21401239423ACE8FE0327810EB387F60023AED8FEEE
S2140123A4130717002326F10E2324E10E930670006B
S2140123B463C0E62CE35806E2930600FFB304C0406C
S2140123C4E358D62A13090001930C70006F00C0006D
S2140123D4938404FFE35E992883268100938707018B
S2140123E41307170023A0D80023A228012326F10EE1
S2140123F42324E10E93888800E3DCECFC1306410EEB
S21401240493050C0013050D00EF704017631E05BEFF
S2140124148327C10E0327810E9308C1106FF05FFB5B
S214012424138714009306890083278100B38CBC01AB
S2140124342322B9012320F9002326910F2324E10E38
S21401244493077000E3C6E7C2130717009388860054
S214012454138906006FE01FBD93770A206388071A65
S2140124648327410113090000232AE10083CC0700D6
S2140124746FE05FE993F70B20638E0716832741010C
S21401248413090000232AD10083CC07009307100008
S2140124946FE05FDF93770A20638E07188327410175
S2140124A4232AE100838C070013D9FC419307090012
S2140124B46FE0DFED93770A206384071683274101D3
S2140124C413090000232AE10083CC07006FF01F8A5A
S2140124D48327C10F63CC07168347710C1307700457
S2140124E46358974437280200130B08ED6FF0DFE3B7
S2140124F483268100B38797001307170023A0D8000B
S21401250423A298002326F10E2324E10E93067000DD
S2140125149388880063DCE6C61306410E93050C0017
S21401252413050D00EF708005631005AE8327C10EF9
S2140125349308C1106FF08FC5832781048325C104D6
S214012544130900003304F44013860700130504003E
S214012554EF60507883C51C001306A00093060000A4
S2140125643338B0001385040093850900B38C0C013D
S214012574EFB0803D6FF0DFB7832B0101130C0B0026
S2140125846FF0CFA893079000E3E497B66FF0DFBA35
S21401259437280200130B48EC6FF01FD91306410EBF
S2140125A493050C0013050D00EF60507D631E05A412
S2140125B48327C10E9308C1106FF0CFBB930C600044
S2140125C46FF01FDB032701023308EB00B3049740C7
S2140125D4B306B8411389040063D896C41389060068
S2140125E46FF08FC48327C100130B04002310F70078
S2140125F46FE00FD58327410113090000232AD10078
S21401260483AC0700930710006FE0DFC783274101FF
S21401261413090000232AE10083AC07006FE09FCE74
S2140126248327410113090000232AE10083AC070034
S2140126346FF0CFF383274101232AE10083AC07001F
S21401264413D9FC41930709006FE05FD49307D002C6
S214012654A303F10C6FF09FE81306410E93050C00DB
S21401266413050D00EF6090718357CC006FE0CFCE59
S2140126741306410E93050C0013050D00EF60107050
S214012684631405980326C10C8327C10E0327810E04
S2140126949308C110E35806B46FF01FD2930D60007F
S2140126A46FE00FE403270102130C0B00032B8102D6
S2140126B4232E8102032AC1013307EB0003240104FC
S2140126C483294104832A4102637AB7AD930D070037
S2140126D46FF0CFAC0327C1019307D0FF6344F70023
S2140126E463DAED009384E4FF93F7F4FD2324F10207
S2140126F46FE04FEE832701020327C1016348F726E3
S21401270483270105930C070093F7170063860700D8
S2140127148327C102B30CF7008327010593F707400B
S214012724638607008327C101E348F01093CAFCFFC0
S21401273493DAFA41B3FA5C01930470062324010286
S214012744232201026FE0CFFA8347710C930D000038
S214012754638407006FE09FA46FE04FAD1306410E3C
S21401276493050B0013050D00EF605061E31605E0B9
S214012774834604008327C10E9308C110B38DDD0080
S2140127846FF01F819307D002A303F10C6FF0DFB83B
S2140127941306410E93050C0013050D00EF60105E41
S2140127A4630405006FF04F868324C10C8327C10E92
S2140127B49308C1106FF0CFA2930A010B9307010D82
S2140127C41307C10C1308C10D93860D0013063000C0
S2140127D493850A0013050D00232011052328C10B38
S2140127E42322C103232AD10B2320D103232CE10B5B
S2140127F4232EE101232E710BEF30401A0347050007
S21401280493070003032FC101832E0102032E410205
S21401281483280104130B0500930C010A630CF706C5
S2140128248327C10CB387B7013309FB0093850C00DA
S21401283413850A00232E11012328C10B232AD10B49
S214012844232CE10B232E710B2320010A2322010AD8
S2140128542324010A2326010AEFC0005D8328C1014F
S21401286493060900631405006FE0CFD38326C10DD8
S21401287463E426016FE00FD3130700039387160062
S214012884232EF10C2380E6008326C10DE3E826FF00
S2140128946FE04FD1930C010A93850C0013850A004F
S2140128A4232011052328C10B2322C103232AD10B7C
S2140128B42320D103232CE10B232EE101232E710BBC
S2140128C42320010A2322010A2324010A2326010ABA
S2140128D4EFC08055032FC101832E0102032E41024E
S2140128E483280104E30E05F293071000B387B7416A
S2140128F42326F10C6FF01FF337260200930E4607CA
S2140129046FE0DFFC8347710C232A21012324010293
S21401291423220102232E0100938A0D00938C0D00BD
S214012924930D0000638407006FE05F876FE00F90EC
S21401293437280200130BC8EC6FF01F9F1306410ED5
S21401294493050C0013050D00EF6050436304050066
S2140129546FE09FEB8324C10C032701028327C10E7A
S2140129649308C110B30497406FF00F8C83270102BC
S2140129740327C10293047006B38CE7008327C101C1
S214012984635CF0728327010593F707406398076A2F
S21401299493CAFCFF93DAFA41B3FA5C016FF01FDACB
S2140129A4832701050327C10193F71700B3E7B7018E
S2140129B4635AE072639E0752832CC1019304600636
S2140129C46FF05FFC930700032304F10C9307800563
S2140129D413672A00A304F10C2328E10493073006A5
S2140129E423280100130BC11463C2B747832BC10FFD
S2140129F493F7F4FD2324F102232C0104032E010F83
S214012A04832E410F032F810F136A2A1063C80B34D8
S214012A14930710066380F452930710046384F4004A
S214012A246FE0CFAE930A010B13850A00232A110522
S214012A342328C10B232AD10B232CE10B232E710B44
S214012A44EFF0400B1306C10CEF60C065138605005A
S214012A549305050013850A00EFE0506A8327010BEE
S214012A64930C010A130901092328F1088327410B52
S214012A741306010893050900232AF1088327810B0D
S214012A8413850C002320C104232CF1088327C10BD2
S214012A942320010823220108232EF108B707FC3F4F
S214012AA42326F10823240108EFC0406D8326010A7A
S214012AB4032E410A832E810A032FC10A93850C0033
S214012AC413850A002328D10A2322D104232AC10B01
S214012AD42322C103232CD10B2320D103232EE10B64
S214012AE4232EE1012320010A2322010A2324010AB9
S214012AF42326010AEFC04033032FC101832E0102AE
S214012B04032E4102832641048328410563160500EA
S214012B14930710002326F10CB7270200938787EE4C
S214012B242322F1021387FDFF232E4105232291065A
S214012B342326B107232AA107232C8107930B0B0015
S214012B44232081062324310723281107130C0700A9
S214012B54232E6107138D0600930D0E0093840E0039
S214012B64130A0F006F00800493850C0013850A0076
S214012B742320C102232EF101232CF10B232EC10A9B
S214012B842328610B232A310B2320010A2322010A5D
S214012B942324010A2326010AEFC00029130CFCFF93
S214012BA4938F040013060A006302050EB707034059
S214012BB41306090093850C0013850A00232EF108D9
S214012BC42320A10B2322B10B2324910A2326410B94
S214012BD423280108232A0108232C0108EFC0005AE0
S214012BE413850A00EFE0102B930505001304050076
S214012BF413850A008329010B8324410B032B810BC4
S214012C04032AC10BEFE0503A8326010B0326010485
S214012C14930509002320D1088326410B13850C0054
S214012C24232831092322D1088326810B232A9108DC
S214012C34232C61092324D1088326C10B232E4109A1
S214012C442326D108EFD0805283274102032B010AA1
S214012C548329410AB386870083C60600832F810A27
S214012C640326C10A232A71052380DB00232281055A
S214012C749307F0FF938B1B00130D0B00938D090034
S214012C8493840F00130A0600E310FCEE8328010761
S214012C9493030B00938209003709FE3F93850C00CA
S214012CA413850A0023201103232E8100032AC1055C
S214012CB483244106032401062328710A232271066C
S214012CC4232A510A23205106232CF10B232EF10526
S214012CD4232EC10A2320C1042320010A2322010A28
S214012CE42324010A2326210BEFC0C020832DC1060D
S214012CF4032D4107032C8107032BC1078329810672
S214012D04832801026344A00E93850C0013850A00F0
S214012D14EFC0801183280102631805008327C101CF
S214012D2493FC170063940C0C832741049306000359
S214012D34138717003387EB0063C80700938B1B00C8
S214012D44A38FDBFEE39CEBFEB3876B412320F102EA
S214012D546FE0CF8523280100138A0700B707008098
S214012D64B3CB77019307D002232CF1046FF05FCA2B
S214012D74B7260200938E46076FE0CFB613891D006F
S214012D84930A010B1308C10D9307010D1307C10C18
S214012D94930609001306200093850A0013050D0007
S214012DA42328C10B2322C103232AD10B2320D103B9
S214012DB4232CE10B232EE101232E710BEF20103E71
S214012DC4032FC101832E0102032E4102832801042D
S214012DD4130B050033092B01930C010A6FF01FA591
S214012DE43309BB01930C010A6FF05FA483274105E5
S214012DF413870B00232EF10C8327410283C6FBFFA6
S214012E0403C6F7006390C60293050003A30FB7FE3B
S214012E140327C10D9307F7FF232EF10C8346F7FF13
S214012E24E306D6FE13861600930590031376F60F73
S214012E346386B600A30FC7FE6FF01FF18327410216
S214012E4403C6A700A30FC7FE6FF01FF093851D00EE
S214012E5413050D0023281101EF3050768328010154
S214012E64130B0500630A052E2328A1006FF01FB873
S214012E7483268100B38797001307170023A0D80081
S214012E8423A298002326F10E2324E10E9306700054
S214012E9463D8E6B41306410E93050C0013050D0022
S214012EA4EF60C06D630405006FE01F968327C10EB3
S214012EB40327810E9308C1106FF0CFB29307000366
S214012EC42304F10C930780076FF09FB0930B0A005D
S214012ED46FE04FCE63840D006FD09FE0930D10001A
S214012EE46FD01FE09307F0FF2326F1006FD09FC732
S214012EF48327C10293046006B30CF700B38CBC01AC
S214012F046FF05FA81307610D6398060013070003AB
S214012F14230BE10C1307710D9306011B938707031B
S214012F24B306D7402300F7009387D60D232CF1026E
S214012F346FD0DFF7930A010B13850A00232A1105C4
S214012F442328C10B232AD10B232CE10B232E710B2F
S214012F54EFE0503A1306C10CEF60C0141386050067
S214012F649305050013850A00EFE050198327010B2A
S214012F74930C010A130901092328F1088327410B3D
S214012F841306010893050900232AF1088327810BF8
S214012F9413850C002320C104232CF1088327C10BBD
S214012FA42320010823220108232EF108B707FC3F3A
S214012FB42326F10823240108EFC0401C8326010AB6
S214012FC4032E410A832E810A032FC10A93850C001E
S214012FD413850A002328D10A2322D104232AC10BEC
S214012FE42322C103232CD10B2320D103232EE10B4F
S214012FF4232EE1012320010A2322010A2324010AA4
S2140130042326010AEFB05062032FC101832E010269
S214013014032E4102832641048328410563160500D5
S214013024930710002326F10CB7270200938747ED78
S2140130342322F1026FF01FAF930470060326C10327
S2140130441307F00F834706006388E7128326C1013E
S214013054130500009305000063DED700B386F6402F
S2140130648347160063840704938515001306160028
S214013074E394E7FE232ED100232EC1022322B102BC
S2140130842324A1020327810283274102B387E70091
S21401309403278104B387E702B38C970193CAFCFF25
S2140130A493DAFA41B3FA5C016FD09FE483470600D2
S2140130B4130515006FF0DFFBB38CFC40938C1C00EA
S2140130C493CAFCFF93DAFA41B3FA5C016FF00FE797
S2140130D48327010593F71700639407006FD01FDF5A
S2140130E46FD05FDE639A0700930A100093046006AC
S2140130F4930C10006FF08FE48327C10293046006DB
S214013104938C1700B38CBC0193CAFCFF93DAFA4183
S214013114B3FA5C016FF08FE2938608006FF0CFB0CC
S2140131248327410183AD07009387470063D40D00CD
S214013134930DF0FF83441400232AF10013040700BF
S2140131446FD0DF869307C0002320FD009307F0FFAE
S2140131542326F1006FD01FA18357CC0013E7070481
S214013164930707002316EC006FD01F9F93072000D8
S214013174232CF1026FD09FD32324010223220102C0
S2140131846FF05FF013890D006FF0DFC4130101FDCA
S214013194232C410103AA811B232021032326110288
S2140131A403298A142324810223229102232E310126
S2140131B4232A510123286101232671012324810135
S2140131C463000904130B0500938B0500930A100092
S2140131D49309F0FF832449001384F4FF6342040235
S2140131E493942400B304990063840B0483A74410C6
S2140131F4638077051304F4FF9384C4FFE31634FF56
S2140132048320C1020324810283244102032901028B
S2140132148329C101032A8101832A4101032B010168
S214013224832BC100032C8100130101036780000076
S2140132348327490083A644009387F7FF638E870498
S21401324423A20400E38806FA8327891833978A00A1
S214013254032C4900B377F70063920702E780060060
S2140132640327490083278A1463148701E38427F913
S214013274E38807F8138907006FF0DFF58327C91879
S21401328483A544083377F700631C070013050B0076
S214013294E78006006FF0DFFC232289006FF09FFAB7
S2140132A413850500E78006006FF09FFB13050000F9
S2140132B467800000B7B50100938505C96F00905477
S2140132C41305000067800000130101FEB7370100F3
S2140132D4232E1100232C8100232A91002328210167
S2140132E42326310123244101232251012320610194
S2140132F4032445009387872B232EF5021307C52E37
S214013304930730002324E52E2322F52E2320052EB1
S21401331493074000130905002326F40013068000D2
S214013324930500002322040623200400232204001C
S2140133342324040023280400232A0400232C040045
S2140133441305C405EFD0CF97379B0100832489006A
S214013354B79A0100379A0100B7990100130B0B15B0
S214013364938A4A1B130ACA239389492AB707010079
S21401337423206403232254032324440323263403EF
S214013384232E84009387970023A6F4001306800057
S2140133949305000023A2040623A0040023A204002C
S2140133A423A4040023A8040023AA040023AC0400D5
S2140133B41385C405EFD0CF900324C900B7070200D4
S2140133C423A0640323A2540323A4440323A634039F
S2140133D423AE9400938727012326F40023220406B0
S2140133E423200400232204002324040023280400A9
S2140133F4232A0400232C04001305C40513068000A5
S21401340493050000EFD0CF8B8320C10123206403F2
S214013414232254032324440323263403232E840023
S2140134240324810193071000232CF902832441010C
S214013434032901018329C100032A8100832A41004B
S214013444032B01001301010267800000130101FF31
S21401345423229100130680069384F5FFB384C402E5
S214013464232021011389050023248100232611002A
S21401347493854407EF309014130405006300050296
S2140134841305C50023200400232224012324A400B9
S2140134941386840693050000EFD08F828320C10033
S2140134A41305040003248100832441000329010039
S2140134B41301010167800000130101FE2328210185
S2140134C403A9811B23263101232E11008327890397
S2140134D4232C8100232A910023244101930905000A
S2140134E4638A070A1309092E9304F0FF130A40009E
S2140134F483274900032489009387F7FF63D80700CD
S2140135046F00400813048406638E97060317C400ED
S2140135149387F7FFE31807FEB707FFFF93871700A4
S2140135242322040623200400232204002324040067
S2140135342326F40023280400232A0400232C040051
S21401354413068000930500001305C405EFC05FF75A
S21401355423280402232A0402232204042324040421
S2140135648320C1011305040003248101832441013E
S214013574032901018329C100032A810013010102E1
S2140135846780000003240900630C04001309040087
S2140135946FF01FF613050900EFF01FD36FF09FF4C9
S2140135A49305C01A13850900EF3050011304050072
S2140135B4630605021305C5002320040023224401E3
S2140135C42324A4001306001A93050000EFC05FEF3E
S2140135D423208900130904006FF09FF123200900BA
S2140135E49307C00023A0F9006FF09FF703A5811B82
S2140135F4B7B50100938505C96F00D02083278503DD
S21401360463840700678000006FF01FCC67800000AA
S21401361467800000678000006780000003A5011C26
S214013624B73501009385052B6F00901303A5011C84
S214013634B73501009385452C6F009012130101FFE5
S21401364423248100B73702003734020013048404AC
S2140136549387C704B387874023229100232611004A
S21401366493D42740638004029387C7FF338487007B
S214013674832704009384F4FF1304C4FFE780070040
S214013684E39804FE8320C1000324810083244100BF
S2140136941301010167800000130101FE2326310195
S2140136A4232C8100232A910023282101232441016C
S2140136B4232E1100138A050013090500938941D9A5
S2140136C4EF40402103A78900B71700001384F7FED3
S2140136D4832447003304444193F4C4FF3304940021
S2140136E41354C4001304F4FF1314C400634EF4000B
S2140136F49305000013050900EF50101583A78900F0
S214013704B38797006308F50213050900EF40C01C50
S2140137148320C1010324810183244101032901017A
S2140137248329C100032A8100130500001301010245
S21401373467800000B305804013050900EF50D010E0
S2140137449307F0FF6308F5049387012003A7070096
S21401375483A68900B384844093E414003304874029
S2140137641305090023A2960023A08700EF40C01684
S2140137748320C1010324810183244101032901011A
S2140137848329C100032A81001305100013010102D5
S214013794678000009305000013050900EF50D00A66
S2140137A403A789009306F000B307E540E3DEF6F4C9
S2140137B483A6411C93E717002322F7003305D5405F
S2140137C423A0A1206FF05FF463840512130101FFA7
S2140137D42324810023229100138405009304050009
S2140137E423261100EF40000F0328C4FF130784FFAC
S2140137F49377E8FF3306F700938541D9832646007D
S21401380403A5850093F6C6FF6306C51A2322D600D0
S214013814137818003305D600631E0808032384FFB3
S2140138240328450033076740832887001385C1D9D9
S214013834B387670013781800638EA8120323C700A2
S21401384423A6680023241301630E081C93E61700BD
S2140138542322D7002320F6009306F01F63E6F60A18
S21401386493F687FF9386860003A54500B386D500A5
S21401387403A6060013D8570093071000B397070151
S214013884B3E7A700138586FF2326A7002324C700D2
S21401389423A2F50023A0E6002326E60003248100E4
S2140138A48320C10013850400832441001301010110
S2140138B46F4080020325450013751500631C05023D
S2140138C4B387D7001385C1D98326860093E81700EA
S2140138D43308F7006384A6160326C60023A6C6008B
S2140138E42324D600232217012320F8006FF0DFF6E5
S2140138F46780000093E61700232ED4FE2320F600EB
S2140139049306F01FE3FEF6F493D6970013064000E1
S2140139146368D60E93D667001388960313868603C8
S214013924131838003388050183260800130888FF16
S2140139346304D81203A646001376C6FF63F6C700CF
S21401394483A68600E318D8FE03A8C600232607012B
S2140139542324D700032481008320C1002324E80004
S214013964138504008324410023A6E6001301010104
S2140139746F309076631208148325C60003268600EA
S214013984B387F600032481002326B60023A4C500CA
S21401399493E617008320C1002322D7001385040071
S2140139A43307F700832441002320F70013010101A4
S2140139B46F30907213781800B387D700631008022B
S2140139C4032584FF3307A7408326C7000326870001
S2140139D4B387A7002326D60023A4C60013E6170040
S2140139E483A6811C2322C70023A4E500E3E8D7EAC3
S2140139F483A5811D13850400EFF01FCA6FF01FEA2B
S214013A04130640016374D602130640056364D606A2
S214013A1493D6C7001388F6061386E60613183800ED
S214013A246FF05FF0B387D7006FF01FEA1388C605FF
S214013A341386B605131838006FF0DFEE23AAE500E7
S214013A4423A8E5002326A7002324A7002322170181
S214013A542320F8006FF09FE403A545001356264083
S214013A64930710003396C7003366A60023A2C50049
S214013A746FF0DFED13064015636CD60093D6F7009E
S214013A841388860713867607131838006FF09FE9A4
S214013A9413064055636CD60093D627011388D607C0
S214013AA41386C607131838006FF0DFE71308803F44
S214013AB41306E0076FF01FE793E617002322D700EB
S214013AC42320F6006FF09FDD832786006388073086
S214013AD483D7C500130101FD23248102232C410150
S214013AE4232A510123261102232291022320210392
S214013AF4232E310123286101232671012324810108
S214013B04232291012320A10113F78700130A06003B
S214013B14930A0500138405006306070803A7050135
S214013B246302070813F7270083240A00630C0708B7
S214013B34832744028325C401370B008093090000C0
S214013B4413090000134B0BC01386090013850A00E2
S214013B54630209049306090063742B0193060B00A0
S214013B64E78007006352A02683278A00B389A90049
S214013B743309A9403385A7402324AA0063000520FE
S214013B84832744028325C4011386090013850A008A
S214013B94E31209FC83A9040003A944009384840066
S214013BA46FF09FFA9305040013850A00EF60104F27
S214013BB46314053A8357C40083240A0013F72700C5
S214013BC4E31807F613F7170063160712832C84000D
S214013BD403250400370B0080934BEBFF130C000006
S214013BE413090000134BFBFF630E090E13F707209E
S214013BF463080724138D0C00636E992D13F7074889
S214013C04630A07088329440183250401130719005D
S214013C1493961900B386360193D9F601330DB54050
S214013C24B389D90093D919403307A701138609002C
S214013C3463F6E900930907001306070093F70740A4
S214013C446386072C9305060013850A00EF300017D8
S214013C54930C0500630A052E8325040113060D0043
S214013C64EF30D0228357C40093F7F7B793E70708DA
S214013C742316F4003385AC01B387A94123289401A4
S214013C842320A400232A3401930C09002324F400DE
S214013C94130D090013060D0093050C00EF30903147
S214013CA4032784008327040093090900B30C974172
S214013CB4B387A701232494012320F40013090000E9
S214013CC403268A00330C3C01B309364123243A0106
S214013CD46386090A832C8400032504008357C400E1
S214013CE4E31609F003AC040003A94400938484009A
S214013CF46FF09FEF130B000013050000130C000078
S214013D04930900006380090E6306050E93070B00F2
S214013D14938B090063F43701938B07000325040092
S214013D24832704018326440163F8A700032984003A
S214013D34338926016340790F63C4DB1A832744025F
S214013D448325C40113060C0013850A00E7800700C7
S214013D5413090500635AA006330B2B411305100003
S214013D64630C0B0403268A00330C2C01B389294106
S214013D743309264123242A01E31609F81305000012
S214013D848320C10203248102832441020329010200
S214013D948329C101032A8101832A4101032B0101DD
S214013DA4832BC100032C8100832C4100032D0100C9
S214013DB413010103678000009305040013850A00BC
S214013DC4EF704021E30005FA8317C40093E7070464
S214013DD42316F4001305F0FF6FF09FFA1305000095
S214013DE46780000083A9440003AC04009384840024
S214013DF4E38A09FE138609009305A00013050C0047
S214013E04EF30407C630C051213051500330B854116
S214013E146FF0DFEF93050C0013060900EF309019DD
S214013E24832704009305040013850A00B38727013A
S214013E342320F400EF70001AE30005F26FF0DFF8B8
S214013E448327040163E2A70483274401636EF9020E
S214013E549306090063F42B0193060B00B3C6F6021E
S214013E64032744028325C40113060C0013850A00A4
S214013E74B386F602E700070093090500E356A0F4AB
S214013E84330939416FF0DFE393890C0063749901B8
S214013E94930909001386090093050C00EF3090116D
S214013EA48327840003270400B38737413307370188
S214013EB42324F4002320E400E39407FC9305040080
S214013EC413850A00EF700011E31005F03309394138
S214013ED46FF01FDF930C0900130D09006FF09FDBD1
S214013EE413860B0093050C00EF30D00C03278400D7
S214013EF48327040013890B0033077741B3877701BF
S214013F042324E4002320F4006FF01FE513850A0040
S214013F14EF40503C930C0500E31E05D483250401B1
S214013F2413850A00EFF05F8A8317C4001307C000E5
S214013F3423A0EA0093F7F7F76FF05FE99387190078
S214013F44138B07006FF0DFDC1307C0008317C40070
S214013F5423A0EA006FF09FE71305F0FF6FF05FE21E
S214013F64130101FE232821012326310123244101C3
S214013F742322510123206101232E1100232C8100C9
S214013F84232A9100138B0500930A052E130A0000B9
S214013F94930910001309F0FF83A44A0003A48A00BE
S214013FA49384F4FF63C604028357C4009384F4FF26
S214013FB463FCF9008317E4001305040063862701F4
S214013FC4E7000B00336AAA0013048406E39E24FD6B
S214013FD483AA0A00E3920AFC8320C1010324810117
S214013FE483244101032901018329C100832A410055
S214013FF4032B010013050A00032A810013010102A1
S21401400467800000130101FD23202103232E3101C3
S214014014232C4101232A51012328610123267101FE
S214014024232611022324810223229102930A0500E6
S214014034938B0500130B052E130A00009309100039
S2140140441309F0FF83244B0003248B009384F4FFAD
S21401405463C804028357C4009384F4FF63FEF90023
S2140140648317E4009305040013850A006386270179
S214014074E7800B00336AAA0013048406E39C24FD3C
S214014084032B0B00E3100BFC8320C10203248102E3
S21401409483244102032901028329C101832A4101A0
S2140140A4032B0101832BC10013050A00032A810196
S2140140B4130101036780000093064500930700007F
S2140140C41305A5013788FFFF6F00C00193971700FA
S2140140D42390E600939707019386260093D707015A
S2140140E4630ED50203D70600137617006304060091
S2140140F493E717001357170013F62700B365070154
S214014104E30606FC939717002390B60093970701DE
S2140141149386260093D70701E316D5FC6780000033
S2140141249306850113070000130525006F00C001DF
S214014134131717002390F600131707019386E6FF5B
S214014144135707016304D50483D7060013960701A2
S2140141541356064193971700635406001367170016
S2140141649397070193D707011376270093E5170062
S214014174E30006FC131717002390B6001317070174
S2140141849386E6FF13570701E310D5FC678000000A
S214014194130101FE370E0100231D0100231E010039
S2140141A4938585019307C10113088100130EFEFF51
S2140141B403D705009387E7FF9385E5FF6318070296
S2140141C4239F07FEE39607FF130646009306E101C5
S2140141D403D707009387270013062600231FE6FE4E
S2140141E4E398D7FE13010102678000003307A70294
S2140141F483D8270003D30700B376C701B386160115
S2140142041357070193D806013307670033071701CD
S214014214935807012391D7002390E700239F17FFA4
S214014224E39807F96FF05FFA0357050083572500F3
S2140142346306070037870000B3E7E7002399F50014
S21401424403572500B78700009387F7FF6304F70237
S21401425493076500938505011305850103D70700B8
S214014264938727009385E5FF2391E500E398A7FE4E
S21401427467800000930765001305A50103D70700AF
S21401428493872700631A0702E39AA7FE138725017B
S2140142949387050093872700239F07FEE31CF7FEF9
S2140142A483D72501378700001307F7FFB3E7E70035
S2140142B42399F5006780000013870501938705009D
S2140142C493872700239F07FEE31CF7FEB7C7FFFF6C
S2140142D42398F500B787FFFF93C7F7FF2399F500E7
S2140142E46780000083574500130101FF23229100D4
S2140142F42326110023248100232021019304050091
S214014304639C070C03576500130400009317070109
S21401431493D7074163C4070A9306A5011306000A47
S21401432463180702938764006F00800003D70700B1
S21401433493872700239EE7FEE39AD7FE239C040077
S21401434413040401630CC40603D76400E30C07FCDE
S214014354937707F0639007041385840193852400FB
S2140143649307000013070500835607001307E7FFAA
S21401437413968600B3E7C7002311F70093D7860088
S214014384E394E5FE03D7640013048400937707F0EF
S214014394E38807FC1309000A6F00400113041400A4
S2140143A4EFF01FD8634C890003D764001317070185
S2140143B41357074113850400E35207FE8320C10007
S2140143C4130504000324810083244100032901000A
S2140143D4130101016780000013F707F013040000BE
S2140143E4631007041309F0F66F0040011304F4FF89
S2140143F4EFF09FCCE30424FD83D744001385040027
S214014404E39607FE8320C1001305040003248100FC
S2140144148324410003290100130101016780000080
S214014424930645009305A501130700006F0080005D
S21401443483D7060013D687003367C7009397870090
S2140144442390E60013970701938626001357070166
S214014454E390D5FE83D74400130480FF6FF09FF8E2
S214014464130101FE232C8100232A9100232E11001F
S2140144742328210123263101938405001304050012
S21401448463C4050A9307F000138605001305450067
S214014494930684019305F00063D4970293070500FD
S2140144A403D7270093872700239FE7FEE39AF6FEA8
S2140144B4231C0400130606FFE3C2C5FE93F4F400AE
S2140144C49307700063D897021307840193052400A9
S2140144D493070000835607001307E7FF1396860029
S2140144E4B3E7C7002311F70093D78600E394E5FEEC
S2140144F4938484FF638A04009384F4FF1305040001
S214014504EFF01FC2E39A04FE130500008320C101E5
S2140145140324810183244101032901018329C10064
S2140145241301010267800000930710FF3309B040AE
S21401453463DEF51293058501930900009306450091
S2140145441306F0000357840193870500B3E9E900D5
S21401455403D7E7FF9387E7FF2391E700E39AD7FEA4
S21401456423120400130909FFE34E26FD130900FF75
S214014574130710FF330999409307000063C6E40A42
S2140145843309F9009307700063CA27056302090C0F
S214014594835784011309F9FF1305040093F71700E1
S2140145A4B3E93701EFF05FB1E31409FE939709010C
S2140145B493D7074163960708139509011355050117
S2140145C48320C101032481018324410103290101BC
S2140145D48329C10013010102678000009399090130
S2140145E493D90941834784019305A401B3E9F900EA
S2140145F49399090193D909019307000003D706008B
S2140146049386260013568700B3E7C700131787005F
S214014614239FF6FE9317070193D70701E390D5FE70
S214014624130989FF6FF09FF6937709FFB307F040EC
S2140146343309F90093077000E3DA27F56FF01FFAE0
S2140146449309100013950901135505016FF05FF7DF
S214014654138509006398090013150501135505010F
S2140146646FF0DFEA130510006FF01FFF930790FF4A
S2140146749309000093064500E3C6F5F66FF05FF173
S21401468483572501378600001306F6FF93D7F700F4
S214014694B307F0402390F5008356250193070501DF
S2140146A413874500B376D6002391D5006386C602E8
S2140146B413876500239205001305E5FF83D60700DB
S2140146C49387E7FF13072700231FD7FEE318F5FE9A
S2140146D4239C0500678000000356250133F6C600B7
S2140146E4631ED600130825019306050003D60600AB
S2140146F493862600631E0600E39A06FF9385A501AA
S21401470413072700231F07FEE39CE5FE67800000CE
S21401471413876500239205001305C5FF83D607009A
S2140147249387E7FF13072700231FD7FEE398A7FE07
S2140147346780000083572501130101FB23248104AC
S21401474493C7F7FF23261104139717011384050053
S214014754631E0700930625019307050003D7070088
S21401476493872700631C0708E39AD7FE835724011F
S21401477493C7F7FF13971701630007069305810094
S214014784EFF01FF09305410213050400EFF05FEF0D
S2140147948355810003554102630CB5069307A100B6
S2140147A4130761021306010283D6070093872700C5
S2140147B46398060A83560700130727006392060ABE
S2140147C4E314F6FE130500008320C10403248104C8
S2140147D413010105678000009307040003D707004F
S2140147E49306240193872700631A0700E388D7F802
S2140147F403D7070093872700E30A07FE8320C10433
S214014804032481041305E0FF1301010567800000FA
S2140148140356A10083566102133515001307A10040
S21401482493076102131515001305F5FF9305C103DC
S2140148349387270013072700631ED600E384B7F87F
S2140148440356070083D6070013072700938727001C
S214014854E306D6FEE3EAC6F63305A0406FF0DFF6BC
S21401486413051000E38205F61305F0FF6FF0DFF57C
S214014874130101FE232C8100232A91002328210100
S21401488423263101232441012322510113890600E1
S21401489493840700232E1100130405009389050051
S2140148A4130A0600930A0700EFF0DFA39307000933
S2140148B43309A94063DCA718B78700009387E7FF8D
S2140148C463DA272163840A1E03A5440083A7040030
S2140148D4630AF5061387A401938744031307270085
S2140148E4231F07FEE31CF7FE930780036300F536D8
S2140148F463D0A71893070004630EF52E93071007D9
S2140149046310F532B78700409387F7FF1307A000BB
S21401491423AAF400B787FFFF23A4E400239CF40032
S21401492423A6E4009307A000378700009387870037
S21401493493971700B387F4002395E70023A0A400F8
S2140149446358201D83A5840083D744011308F00807
S214014954139615003306C40003570600B376F70012
S214014964634AA8021308B0006346B8029307060018
S2140149749305840103D727006304070093E6160012
S2140149842391070093872700E396F5FE0357060055
S21401499483D7440193C7F7FFB3F7E7002310F60064
S2140149A483D7640133F7D700630007066392D702FF
S2140149B46398092083A7C40003D78401939717003B
S2140149C4B307F40083D70700B3F7E700638E070243
S2140149D413862403930684019384C40113070000F9
S2140149E48357060083D506009386E6FF1306E6FF83
S2140149F4B387B700B387E70013D707012391F600FF
S214014A0413771700E31E96FC63562017835744005A
S214014A14639E0712B7870000231C04009387E7FFF1
S214014A2463C82709231124018320C10103248101BA
S214014A3483244101032901018329C100032A81003A
S214014A44832A410013010102678000006354090EA2
S214014A54930700F7635CF908930724001304A40181
S214014A6493872700239F07FEE39C87FE6FF0DFFBF7
S214014A7493078001630AF514930750036312F51A2A
S214014A8437170000B7070004930660009387F77F83
S214014A941307078023AAF40023A4D400239CE4006C
S214014AA423A6D400930760006FF05FE8231C04007C
S214014AB4B787FFFF93C7F7FF2311F400930744005A
S214014AC4130484012390070093872700E31CF4FE54
S214014AD46FF09FF5930724001304A401938727001E
S214014AE4239F07FEE39C87FE6FF01FF493050900DE
S214014AF413050400EFF0DF96630405009309100024
S214014B04638A0A0A03A5440083A70400E314F5DCB8
S214014B14930700096302F50883578401130504000B
S214014B2493F71700B3E9F900EFF00FD903A5440092
S214014B346FF05FE1E3800AEE03A5440083A7040057
S214014B44E31AF5D8E34020E16FF09FFC1305040057
S214014B54EFF08FD6B787000013091900231C040051
S214014B649387E7FFE3C627F5E35E09EA231104000A
S214014B746FF09FEB930700096306F5001305040025
S214014B84EFF00FDA83574400E39207FC231C04007A
S214014B94E34E09FC6FF01FE903A6840083D74401A2
S214014BA4131616003306C40003570600B3F6E700CF
S214014BB46FF05FDE231C0400231104006FF0DFE6B0
S214014BC4E3080AE06FF05FE4B70780009387F70F06
S214014BD41307400023AAF4009307001023A4E4005B
S214014BE4239CF40023A6E400930740001307001057
S214014BF46FF0DFD39307700023A4F400B707018096
S214014C049387F7FF23AAF40093071000239CF4006C
S214014C149307600023A6F400130710006FF01FD15A
S214014C249307C00023A4F400B70701809387F7FF16
S214014C3423AAF40093071000239CF4009307B00002
S214014C4423A6F400130710006FF05FCEB7078000A9
S214014C549387F70F1307600023AAF4009307001045
S214014C6423A4E400239CF40023A6E4009307600035
S214014C74130700106FF09FCB130101FD23202103BE
S214014C84232E310113890500835925002326110299
S214014C942324810223229102232C4101930406003A
S214014CA423267101232A510123286101232481012A
S214014CB4232291012320A101930B0500EFF08FE23B
S214014CC4035429009307050013050900B389F94025
S214014CD4138A4403EFF00FE13304A4401387E4047A
S214014CE493070A0093872700239F07FEE39CE7FEAA
S214014CF463483409138B4B00930A4900138CAB01A8
S214014D04130D290013870A0093070B0003D6070027
S214014D14835607009387270013072700631AD60ACA
S214014D24E39687FF13868B01130789019306000018
S214014D3483570700835506001307E7FFB387D74059
S214014D44B387B74093D607012311F70093F61600ED
S214014D541306E6FFE31EEDFC930C100013050A0090
S214014D64EFF00FBC83D7C4041304F4FF1305090042
S214014D74B3E7FC002396F404EFF08FBAE35434F956
S214014D8493060400032481028320C1028329C101FE
S214014D94032A8101832A4101032B0101832BC100CC
S214014DA4032C8100832C4100032D0100938704000A
S214014DB41305090083244102032901021307000095
S214014DC41306000093050000130101036FF05FAAA8
S214014DD4930C0000E3E4C6F86FF0DFF4130101F767
S214014DE42322910893040500035525013787000003
S214014DF41307F7FF2324810823202109232C4107C5
S214014E0423261108232E3107232A51072328610755
S214014E142326710723248107232291073375A700CC
S214014E241389050013040600138A0600631EE500B1
S214014E3493892401138704000356070013072700E8
S214014E44631E0622E31A37FF03562901B7870000BB
S214014E549387F7FFB375F6006394F5129306290159
S214014E6413070900835707001307270063960722D1
S214014E74E39AE6FEB78700009387F7FF6304F5100D
S214014E849307090003D70700938727006318071CB5
S214014E94E39AF6FEB72502009385451213850400AE
S214014EA4EFF05F896308052003D524010356290121
S214014EB4B78700009387F7FF3378F500B375F600DC
S214014EC4630AF81AB78700009387F7FF6390F5140F
S214014ED4930629019307090003D707009387270040
S214014EE463160712E39AD7FE378700001307F7FF06
S214014EF49358F50093050800938924016304E80E8A
S214014F04035709001309290063180732E31AD9FE67
S214014F149357F600B3871741B337F0009397F7001A
S214014F242319F40013072401930704009387270029
S214014F34239F07FEE39CE7FE83572401378700007F
S214014F441307F7FFB3E7E7002319F4008320C1082A
S214014F540324810883244108032901088329C107FE
S214014F64032A8107832A4107032B0107832BC106E2
S214014F74032C8106832C4106130101096780000076
S214014F846316F508938924019387040003D7070061
S214014F9493872700631A072AE39AF9FEB7250200C6
S214014FA49385451213050900EFF0CFF86304051045
S214014FB403562901B78700009387F7FFB375F600F8
S214014FC46380F51203D524013377F5006310F704E3
S214014FD49387040003D70700938727006314072ADF
S214014FE4E39AF9FE83D7040093842400639A072482
S214014FF4E39A34FF9358F500378700001307F7FF49
S214015004E398E5F0930629016FF09FEF13850400FA
S2140150149305C100EFF0CFE693058102130509005D
S214015024EFF00FE68354E1008359A102639E040A5C
S21401503493070101930641026382D72203D707002F
S21401504493872700E30A07FE1305C100EFF08FA933
S2140150540357A102B304A0406F00400903D52401FD
S214015064B78700009387F7FFB375F500138805002B
S214015074E392F5E6938924016FF09FF513874401C3
S21401508483D704009384240013042400231FF4FE0E
S214015094E398E4FE6FF09FEB13074401835709007E
S2140150A41304240013092900231FF4FEE318E4FE65
S2140150B46FF0DFE9130704019307040093872700C1
S2140150C4239F07FEE39CE7FEB7C7FFFF2318F40000
S2140150D4B787FFFF93C7F7FF2319F4006FF01FE7A5
S2140150E4930629016FF0DFD9138709001389090094
S2140150F49307C1029306010463120702638AF61634
S21401510403D7070093872700E30A07FE13058102E6
S214015114EFF04F9D0357A1023389A94083578102BB
S21401512493098A03231BEA02231AFA021307EA04E1
S214015134938709002390070093872700E31CF7FE53
S214015144130CCA04930B0000930A4102930C010149
S214015154130B610403D50A00938AEAFF631C05084E
S2140151648357CA0413070C00B3EBFB000356E7FF8F
S2140151741307E7FF2311C700E39AE9FE231C0A027B
S214015184E39A9AFD13074A0393078102130621043F
S214015194835607009387270013072700239FD7FE0C
S2140151A4E318F6FEB7C6FFFFB384240193862600F0
S2140151B493850B001305810293070A001307000465
S2140151C4B386D40013060000EFF08FEA035781027A
S2140151D48357C1009305040013058102B387E74092
S2140151E4B337F000B307F0402314F102EFF0CF8396
S2140151F46FF0DFD51306410493058102EFE05FF9F2
S21401520413050C00930500001306C105835705001A
S214015214035706001305E5FF1306E6FF3307F700F9
S2140152243307B700935507012311E50093F51500DD
S214015234E31E66FD6FF0DFF2930700006FF09FCD6B
S214015244930800006FF05FDBB78700009387F7FFD2
S214015254E388F5E803D524016FF09FD7930744014B
S21401526413042400231F04FEE31CF4FE6FF01FCE78
S2140152749307440113042400231F04FEE31CF4FED5
S2140152846FF0DFCC378800001308F8FF6FF09FC378
S21401529483572501130101F52324810A93C7F7FFD8
S2140152A42322910A2320210B232E31092326110AB6
S2140152B4232C4109232A510923286109232671092C
S2140152C423248109232291092320A109232EB1072E
S2140152D413971701930405001389050013040600A8
S2140152E493890600631E07009306250193070500AC
S2140152F403D707009387270063120730E39AD7FE84
S2140153048357290193C7F7FF13971701631E0700F5
S214015314930629019307090003D7070093872700FB
S214015324631C072EE39AF6FE372A020093054A12F7
S21401533413850400EFF00FC0630E052E03D6240177
S21401534483552901B78700009387F7FF3375F60065
S214015354B3F6F5006316F50A13882401938704004F
S21401536403D707009387270063180708E39A07FF04
S214015374B78700009387F7FF639AF62C93062901F3
S2140153849307090003D7070093872700631C074880
S214015394E39AD7FE130704019307040093872700B3
S2140153A4239F07FEE39CE7FEB7C7FFFF2318F4001D
S2140153B4B787FFFF93C7F7FF2319F4008320C10AB9
S2140153C40324810A8324410A0329010A8329C10982
S2140153D4032A8109832A4109032B0109832BC10866
S2140153E4032C8108832C4108032D0108832DC10752
S2140153F41301010B67800000B78700009387F7FF4E
S2140154046380F626138504009305C101EFF04FA7C8
S2140154149305810313050900EFF08FA6835AA103B0
S2140154248354E10163860A2C232651011386040062
S2140154342324910093070102930641036312060293
S2140154446384F63A03D7070093872700E30A07FE27
S2140154541305C101EFE01FE9B387A4402324F1003B
S21401546403278103938A890393870A0023AAE902FF
S2140154749384E90493872700239F07FEE39C97FE02
S21401548413058103EFE05FC3035B210237090100C3
S214015494130C0105131A0B01330A6A41930CA10379
S2140154A41309F9FF130DE106930D61058357C10333
S2140154B40357E103930B090093970701B387E700AA
S2140154C46368FA0033D56703931B050193DB0B016D
S2140154D4130641059305C10113850B00EFE05FCB6D
S2140154E41307C1039307810503D6070083560700F4
S2140154F493872700130727006314D622E396A7FF92
S214015504930700009306C10613060C000357060012
S21401551483D506001306E6FF3307F7403307B74083
S214015524935707012311E60093F717009386E6FFC6
S214015534E31E96FD23907A019307C10303D7270040
S21401554493872700239FE7FEE39A87FF2318010426
S214015554938A2A00E39C54F5130700009307C103BA
S2140155641306210583D60700938727003367D700E0
S214015574E39AC7FE9317070193D70741638407008D
S214015584130710009315070193D5050113874903E3
S2140155949307810383560700938727001307270081
S2140155A4239FD7FEE318F6FE8327C1000327810055
S2140155B4B74600009386F6FFB38AE74013058103D6
S2140155C49387090013070004B386DA001306000064
S2140155D4EFF00FAA035781038357C1019305040013
S2140155E413058103B387E740B337F000B307F040F0
S2140155F4231CF102EFE05FC36FF05FDC1387440105
S21401560483D704009384240013042400231FF4FE88
S214015614E398E4FE6FF09FDA130749018357090004
S2140156241309290013042400231FF4FEE318E9FEDA
S2140156346FF0DFD893054A1213050900EFF08F8F38
S214015644E31E05CE6FF01FD5E30E08DA9307440177
S21401565413042400231F04FEE31CF4FE6FF01FD67C
S21401566413080000930629019307090003D70700CE
S21401567493872700E31A07FCE39AD7FEB78700004F
S2140156849387F7FF630AF5041356F6008357090058
S2140156941309290063900718E31AD9FE93D5F50078
S2140156A46384C500378700002319E40093070400C8
S2140156B41307240193872700239F07FEE39CE7FE35
S2140156C483572401378700001307F7FFB3E7E70082
S2140156D42319F4006FF09FCE1385240183D70400A9
S2140156E493842400639C0712E39AA4FE6FF0DFF907
S2140156F49307C103130C0105630EFC0C03D70700C3
S21401570493872700E30A07FE13058103EFE09FBD95
S214015714B307A0400356E1012326F1006FF05FD1E1
S214015724E3F0C6DE9387FBFF9398070193D808013D
S21401573493060000130641031307C10683570700A7
S214015744835506001307E7FFB387D740B387B740EF
S21401575493D607012311F70093F616001306E6FF06
S214015764E31EB7FD1307C1039307810503D607009C
S2140157748356070093872700130727006318D6006C
S214015784E396A7FF938B08006FF09FD7E3FCC6FE52
S2140157941385EBFF931B050193DB0B0193060000B6
S2140157A4130641031307C1068357070083550600F2
S2140157B41307E7FFB387D740B387B74093D60701EC
S2140157C42311F70093F616001306E6FFE31EB7FD52
S2140157D46FF01FD39307440113042400231F04FE10
S2140157E4E31CF4FE6FF09FBD0357C1018357810389
S2140157F46304F700378600002319C4001307240145
S2140158049307040093872700239F07FEE39CE7FE84
S2140158146FF01FEB930500006FF09FE8130600007E
S2140158246FF0DFE6130810006FF01FE4130101FDAB
S21401583423248102232611021384050093074100C1
S2140158441307E10193872700239F07FEE39CE7FEE6
S2140158540356E5009317060193D7074163CA070663
S214015864B78700009387F7FF231201003376F6000B
S214015874630CF6069307E5002313C1001307A10082
S21401588483D6E7FF9387E7FF13072700231FD7FE77
S214015894E318F5FE631206022314010093050400BF
S2140158A413054100EFE05F988320C10203248102BF
S2140158B41301010367800000930710009305F0FFAE
S2140158C4130541002314F100EFE09FB96FF01FFDAB
S2140158D49307F0FF2312F100B78700009387F7FFC1
S2140158E43376F600E318F6F8930705009306E50009
S2140158F403D7070093872700631C0706E39AF6FE7F
S214015904130744019307040093872700239F07FE88
S214015914E39CE7FE130724019307040093872700FB
S214015924239F07FEE31CF7FE83572401B786000076
S2140159349386F6FFB3E7D7009397070193D707013A
